:020000040800F2
:1000000000000320910500080D1C00080F1C0008CB
:10001000111C0008131C0008151C0008000000003B
:100020000000000000000000000000001165000852
:10003000171C000800000000A16500080566000804
:10004000E1050008E1050008E1050008E1050008F8
:10005000E1050008E1050008E1050008E1050008E8
:10006000E1050008E1050008E1050008E1050008D8
:10007000E1050008E1050008E1050008E1050008C8
:10008000E1050008E1050008E1050008E1050008B8
:10009000E1050008E1050008E1050008E1050008A8
:1000A000E1050008E1050008E1050008E105000898
:1000B000E1050008E1050008E1050008E105000888
:1000C000E1050008E1050008E1050008E105000878
:1000D000E1050008E1050008E1050008E105000868
:1000E000E1050008E1050008E1050008E105000858
:1000F000E1050008E1050008E1050008E105000848
:10010000E1050008E1050008E1050008E105000837
:10011000E1050008E1050008191C0008E1050008D8
:10012000E1050008E1050008E1050008E105000817
:10013000E1050008E1050008E1050008E105000807
:10014000E1050008E1050008E1050008E1050008F7
:10015000E1050008E1050008E1050008E1050008E7
:10016000E1050008E1050008E1050008E1050008D7
:10017000E1050008E1050008E105000800000000B5
:10018000E1050008E1050008E1050008E1050008B7
:10019000E1050008E1050008E1050008E1050008A7
:0C01A000251C0008E1050008311C0008C7
:1001B00010B5054C237833B9044B13B10448AFF3A1
:1001C00000800123237010BD6001002000000000AA
:1001D0009CAE010808B5034B1BB103490348AFF3BC
:1001E000008008BD00000000640100209CAE0108F2
:1001F00001F0FF01102A2BDB10F0070F08D010F8D8
:10020000013B013A8B422DD010F0070F42B3F6D1DB
:10021000F0B441EA012141EA014122F007047FF0F4
:1002200000070023F0E80256083C85EA010586EA4B
:10023000010685FA47F5A3FA87F586FA47F6A5FA87
:1002400087F68EB9EED1F0BC01F0FF0102F0070293
:1002500032B110F8013B013A83EA010313B1F8D13E
:100260000020704701387047002D06BF354603381F
:10027000073815F0010F07D1013015F4807F02BF58
:10028000013015F4C03F0130F0BC0138704700BFA9
:1002900053B94AB9002908BF00281CBF4FF0FF31ED
:1002A0004FF0FF3000F072B9ADF1080C6DE904CEEB
:1002B00000F006F8DDF804E0DDE9022304B0704741
:1002C0002DE9F047089E04468846002B4BD18A4210
:1002D000154667D9B2FA82F24AB1C2F1200701FA93
:1002E00002F320FA07F7954047EA030894404FEAE3
:1002F000154E230CB8FBFEF71FFA85FC0EFB178882
:1003000043EA084307FB0CF1994209D9EB1807F1BE
:10031000FF3080F01B81994240F21881023F2B444C
:100320005B1AA4B2B3FBFEF00EFB103344EA0344A5
:1003300000FB0CFCA44509D92C1900F1FF3380F017
:100340000781A44540F2048102382C4440EA07406A
:10035000A4EB0C0400271EB1D4400023C6E90043DF
:100360003946BDE8F0878B4209D9002E00F0EB80BA
:100370000027C6E9000138463946BDE8F087B3FAE0
:1003800083F7002F47D18B4202D3824200F2FA80DA
:10039000841A61EB030301209846002EE0D0C6E9E1
:1003A0000048DDE702B9FFDEB2FA82F2002A40F02F
:1003B0008F80491B4FEA154E1FFA85F80127B1FBC4
:1003C000FEFC230C0EFB1C1143EA014308FB0CF15D
:1003D000994207D9EB180CF1FF3002D2994200F292
:1003E000CD808446591AA3B2B1FBFEF00EFB101467
:1003F00043EA044408FB00F8A04507D92C1900F192
:10040000FF3302D2A04500F2B6801846A4EB0804E0
:1004100040EA0C409FE7C7F1200CBB4022FA0CFEDB
:100420004EEA030E01FA07F420FA0CF521FA0CF358
:100430004FEA1E482543B3FBF8F92C0C08FB19338F
:100440001FFA8EFA44EA034309FB0AF49C4202FABB
:1004500007F200FA07F10BD91EEB030309F1FF3095
:1004600080F087809C4240F28480A9F102097344A5
:100470001B1BADB2B3FBF8F008FB103345EA034495
:1004800000FB0AFAA24508D91EEB040400F1FF3371
:100490006BD2A24569D90238744440EA0940A0FBF6
:1004A0000289A4EB0A044C45C2464B4654D351D0B2
:1004B000002E69D0B1EB0A0564EB030404FA0CFCCE
:1004C000FD40FC404CEA0505C6E90054002747E71B
:1004D000C2F1200320FA03F7954001FA02F021FA55
:1004E00003F34FEA154E3843010CB3FBFEF71FFA36
:1004F00085F80EFB173341EA034107FB08F38B42F3
:1005000004FA02F407D9691807F1FF3C2FD28B4295
:100510002DD9023F2944CB1A81B2B3FBFEF00EFB6A
:10052000103341EA034100FB08F38B4207D96918F5
:1005300000F1FF3C17D28B4215D902382944C91A61
:1005400040EA07473BE73746304609E70746E7E614
:100550001846FBE64145ABD2B8EB020A69EB0E0246
:1005600001381346A4E76046E9E7184695E7674671
:10057000D1E781467CE702382C4447E7ACF1020C16
:100580002B442FE7384608E73746E9E6704700BFB7
:10059000DFF834D0002103E00C4B5B5843500431AA
:1005A0000B480C4B42189A42F6D30B4A02E0002348
:1005B00042F8043B094B9A42F9D303F04BF919F086
:1005C000B1FC00F01BFE704700000320E48907081F
:1005D000000000206001002060010020682501204B
:1005E000FEE700F017BC00F085BC704710B5042191
:1005F000044619F021FC204610BD000038B50C4B14
:100600000C4C18800C4B822019806368984740F688
:10061000110398420AD1094D23682C608220984723
:100620002B688220DB689847002038BD0120FCE75A
:100630007C0100204C0000207E0100208001002071
:100640004FF4A071F020FFF7D9BF0000F7B52C4D93
:100650002B6804461B698220984780B220800028BE
:100660004BD02B680DF106025B6901A982209847E7
:10067000BDF80630A3F5B4739BB20B22B3FBF2F3C3
:1006800033B1204A12889A423CBF02F1FF339BB239
:10069000BDF8042040F6B8318A4295BFC2F57162B8
:1006A000C2F56D620E320832ADF80420BDF80410B8
:1006B0000F22B1FBF2F131B1134A12888A423CBFDA
:1006C00002F1FF3189B2114E114D30682F6882B2AC
:1006D000814288BF8A1AB8B298BF521ABB428CBFF7
:1006E000181AC01A92B280B20244052AC4BF3160FF
:1006F0002B60336863802B68A38003B0F0BD00BF1C
:10070000800100207E0100207C0100208401002067
:100710008801002037B568460D461446FFF796FF5E
:10072000BDF8000030B1BDF802302B60BDF80430D8
:100730002360012003B030BD70477047704701232C
:1007400080F8741080F875307047002070470020E2
:100750007047836B0BB10846184770474FF6FF7020
:100760007047406803689B69184770477047704737
:1007700008B5036804469B6E9847236820461B6EA5
:10078000984700F0D9F8236820469B6D98472920A8
:1007900000F070FF00F0D0F8236820469B6D98476A
:1007A000F8E710B5044608F0FFFE23682046D3F8AA
:1007B0009030BDE81040184700F03ABC00F03EBC55
:1007C00000F044BC00F010BC00F044BC00F04CBC95
:1007D00000F014BC08B531B90A4B0B4A0B4840F283
:1007E0006B2119F055FBC0E90F1200320849436430
:1007F00018BF01220A700033064A18BF0123137084
:1008000008BD00BF14AF010850B001084CAF01088B
:100810006E2001206F20012008F041B910B57C2125
:10082000044619F009FB204610BD90F877301BB143
:10083000406803681B6818471846704730B590F841
:10084000341090F87440104B8C421A780DD05AB97D
:100850000E4A0F490F4814880F4D0C8001881180F3
:100860002980048001221A7030BD002AFCD009487A
:10087000074A01881180054A074D14882C80118091
:1008800004800022EFE700BF6820012064200120DF
:100890006A200120662001206C20012000F0F8BBB6
:1008A000012108B50022084605F006FB0A4B186036
:1008B00028B90A4B0A4A25210A4819F0E9FA002208
:1008C0000421012005F0C2FB074B186018B9074B43
:1008D000034A2921F0E708BD900100209EB00108DD
:1008E00074B10108E7B001088C01002032B10108A1
:1008F000024B4FF0FF31186805F034BB9001002027
:10090000014B186805F06ABB90010020024B0021E2
:10091000186805F027BB00BF90010020FFF7F0BF6B
:1009200003480449006800231A4605F0D5BB00BF00
:100930008C0100200400002013B5084C00231A4647
:1009400001A9206805F00AFC4FF0FF33002201A93D
:10095000206805F003FC02B010BD00BF8C01002030
:1009600003685B6C18470020704703689B6A184750
:1009700040F2EF107047000010B5074C074B2360A2
:10098000204603F06FF8064B2361064B6361064B6C
:100990004FF080629A6010BD6C24012000B00240CC
:1009A000C9090008AD09000800E100E008B5034AE4
:1009B000034B0448362119F06BFA00BF3CB2010822
:1009C000D2E00108A3B10108024B1B685868036814
:1009D0005B69184770200120084B10B5036004467E
:1009E000074803F007F9074B4FF08062C3F88820EF
:1009F000BFF34F8FBFF36F8F204610BDF4B10108D6
:100A00006C24012000E100E010B50446FFF7E4FF8C
:100A100020464FF4426119F00FFA204610BD000045
:100A2000044B1B6893F876200AB1D86C00B998681B
:100A3000704700BF702001202DE9F7430D68202D7D
:100A40000C4600F09780402D00F094802A1F5642FB
:100A50005641802D00F09080A5F580735D425D4188
:100A6000FFF7DEFF0368DB6998472368402B864663
:100A700000F0998000F28280042B00F08D80202B02
:100A800000F09180BEF1100F14BF4FF0010C4FF039
:100A9000020C00224B4BB4F810801968E78AD1F899
:100AA00000905A60BEF1100F29F4403914BF0120A4
:100AB0000220A7EB080749EA02029860DF600A609B
:100AC0004A6BC3F82CC022F0070202434A630A6C47
:100AD00022F47F5222F03F023A430A64A28AA2EB38
:100AE00008029A6206B995B3227FFF2A15BF022138
:100AF0000022C3E90C121A631DB3227FA169BEF163
:100B0000100F4FEA026C51D14FF01F08C1F3C422FD
:100B1000C2EB0222B2FBF8FE01EA0802C2EB02229B
:100B2000B2FBF8F242EA0C0242EA0E42C1F345116E
:100B3000C1EB01214FF03F0CB1FBFCF142EA012275
:100B40005A63C3E9067000211E4803F013F901211E
:100B50001C4803F00FF9238A628A06B955B3CDE920
:100B60000032E368616817481A4602F0C5FF03B017
:100B7000BDE8F08301266FE7012571E7802B06D0E1
:100B8000B3F5807F7FF47EAF4FF0090C01E04FF0AA
:100B90000A0C4FF400327DE7102814BF4FF0010C0F
:100BA0004FF0020CF5E74FF0000CF2E74CEA0101C0
:100BB0005963C6E700926168E268024802F07EFF6E
:100BC000D5E700BF6C240120F7B50D46FFF728FFDD
:100BD0000368DB6998471028AB69297F66D103F069
:100BE0001F02C2EB02221F20B2FBF0F4C3F3C422A7
:100BF00044EA0164C2EB0222C3F34513B2FBF0F2F4
:100C000044EA0244C3EB03233F220221B3FBF2F385
:100C100044EA03242B682748EE8A0268082B2B8AB3
:100C2000A6EB03061368C6600CBF4FF400374FF401
:100C3000403723F440333B43C0E901711360536BE9
:100C400023F007030B435363136C23F47F5323F008
:100C50003F033343B7F5003F13641CD10123C0E9C0
:100C60000C340923C0E90661C362002103F082F855
:100C70000121104803F07EF8B7F5003F2B8A6A8AFD
:100C80000DD1E9680B48CDE900320B460A4602F067
:100C900033FF03B0F0BD0023C1628362E8E7009236
:100CA0002146EA68034802F009FFF2E743EA0164DB
:100CB0000121AFE76C24012070B505462C460A4B94
:100CC0000C30002668602E726E7244F8203B602261
:100CD000214608F099FD05F54263A6612034A34240
:100CE000FBD1284670BD00BFF4B101080120704758
:100CF00054207047542303FB0100083070475423ED
:100D000003FB010008307047012070474FF4047066
:100D100070474FF4047303FB0100083070474FF431
:100D2000047303FB01000830704701207047102056
:100D3000704700EB01100830704700EB01100830DD
:100D40007047084601F028BA10B5034B036004460B
:100D500007F0CEF9204610BDE0B2010810B50446F8
:100D6000FFF7F2FF20465C2119F066F8204610BD1F
:100D700010B5034B0360044607F0BAF9204610BDD6
:100D8000ACB2010810B50446FFF7F2FF20464FF45D
:100D9000067119F051F8204610BD000010B5034B44
:100DA0000360044607F0A4F9204610BD78B201089C
:100DB00010B50446FFF7F2FF2046182119F03CF861
:100DC000204610BD10B5084B0360044600F51170B5
:100DD000FFF7BAFF04F12C00FFF7CAFF04F114007B
:100DE000FFF7DCFF204610BD14B3010808B5024828
:100DF000FFF7E8FF08BD00BF9801002010B50446CA
:100E0000FFF7E0FF20464FF47F7119F015F82046F8
:100E100010BD00002DE9F34100F07EFF054600F013
:100E20007FFF0024014623462846224600940DF009
:100E3000FBF9254B254A264D1A60204602F088F919
:100E400024480DF033F92B78BFF35B8FDB0735D4E3
:100E5000284618F0F3FF88B31F4C204B236004F59D
:100E6000297604F1140004F12C0804F51177606070
:100E7000C4F80880E760266107F03CF9184B63610D
:100E8000404607F037F9174BE362384607F032F96E
:100E9000154BC4F8443204F5287002F005FA2246D6
:100EA00004F52871304602F0C3F9304601F074F9B8
:100EB000284618F0CFFF0D4819F008F80C4802B08A
:100EC000BDE8F041FFF7EABCCC200120341200203D
:100ED00094010020080000209801002014B30108AC
:100EE00078B20108ACB20108E0B20108ED0D0008CB
:100EF000B81100200148FFF73BBC00BFB81100202B
:100F000070B5294E294C2A4D2A4B23603046FFF7F5
:100F1000D3FE284610F014FA274B28485866284874
:100F2000DC6000220121C3E90165C3E90422C3E9B1
:100F30000622C3E908221A8583F82A20DA621A8673
:100F4000C3E90E22C3E9102283F8482083F84A201F
:100F5000C3E913225A6583F8682083F8692083F86F
:100F60006A2083F86B2083F86C201A6783F8752059
:100F700083F8762083F8491083F8771003601148CE
:100F8000114D83F87810F02404804FF4A07028806D
:100F90000E4D83F834102A700D4A14800D4A1080CB
:100FA0000D4A1A6070BD00BF98050020940500200E
:100FB0003812002004AF0108B81100200100000120
:100FC000702001206420012066200120682001207B
:100FD0006A2001206C2001209CAF01080148FFF726
:100FE000FBBC00BF98050020034B902283F85A23D6
:100FF00083F85823704700BF00E100E0094A0A491E
:10100000D3680A48C3F30A03013B9BB20B80116902
:10101000C1F30A01013901801364536B43F00103EA
:101020005363704700680140B2120020B0120020E4
:10103000014B986A704700BF84680140024B01224F
:10104000996243F8602C70478468014007F02DBD19
:1010500007F051BE034B4FF080629A604FF08072F0
:101060009A60704700E100E0084B4FF08062C3F8DF
:101070008820BFF34F8FBFF36F8F4FF08072C3F89C
:101080008820BFF34F8FBFF36F8F704700E100E000
:1010900070B5044608F000F82368DD6C0AF01CFC0B
:1010A00001462046A8472368044A1D6F2046AC46E7
:1010B0000023A2F51631BDE870406047005802D009
:1010C000134B144A1B6C11888B4210B5124C13D170
:1010D000124B198803F05EFD226892F866300133E6
:1010E00082F86630FFF71CFC206808F05DFA0020EB
:1010F000BDE81040FFF720BB03F04CFD0020FFF7D8
:101100001CFB20680368BDE810409B69184700BFBE
:1011100000680140B212002070200120B0120020AF
:1011200007B5064B02A91B6821F8020D01220448ED
:1011300004F02BFA03B05DF804FB00BF10000020A0
:1011400060230120F0B5A1B0102200210AA818F0F8
:1011500028FF1422002103A818F023FF00213022C9
:1011600014A818F01EFF0024224B01941A6C42F0C0
:1011700080521A641B6C03F080530193019B1E4B39
:1011800002941A6842F440421A601B6803F4404318
:1011900002930122029B4FF48033CDE908230225FC
:1011A0004FF48003CDE90E5308274FF4A8730426AB
:1011B00008A8CDE910731295139603F009FD0F23CB
:1011C000CDE903354FF4A0514FF48053CDE9061318
:1011D00003A80521059403F0CFFEC023189314A89B
:1011E0004FF4003314971A961D9303F08DFF21B02E
:1011F000F0BD00BF003802400070004080B5A4B0D0
:1012000002F036FBFFF79EFF1422002117A80024EE
:1012100018F0C7FEC54B01941A6BC548C54D42F086
:1012200020021A631A6B02F020020192019A0294C2
:101230001A6B42F080021A631A6B02F0800202926B
:10124000029A03941A6B42F004021A631A6B02F0BA
:1012500004020392039A04941A6B42F001021A6387
:101260001A6B02F001020492049A05941A6B42F080
:1012700002021A631A6B02F002020592059A0694A2
:101280001A6B42F040021A631A6B02F04002069297
:10129000069A07941A6B42F010021A631A6B02F056
:1012A00010020792079A08941A6B42F008021A6318
:1012B0001B6B03F00803089322460421089B02F0ED
:1012C0008FFE22464FF440519B4802F089FE0126D2
:1012D00002274FF0040817A995481994CDE91786FD
:1012E0001A9702F091FD4FF4405317A99248CDE9A7
:1012F0001736CDE9194702F087FD17A93C238F481F
:10130000CDE91736CDE9194402F07EFD8C488D4BAE
:10131000036002F055FB8C4A8C4B2C62C5E900231C
:1013200028464FF48043C5E90434C5E90244C5E9C1
:10133000064403F02FF81021284603F073FA2146E3
:10134000284603F08EFA8248824984624FF4827301
:10135000C0E900134FF400751823C0E906530A23AF
:101360007D4DC362C0E90244C0E90444C0E90844B9
:1013700004F0CEF8794B17974FF0100CC5E9003602
:101380004023C5E904C34FF4C073C5E906344FF4E4
:101390000063C5E908344FF40053AB624FF0030A11
:1013A000072317A92846CDE918381A934FF00809E2
:1013B000C5E90248CDE91BA71D9703F0CFFF4FF603
:1013C000FF720AA92846CDE90B9609940A960D9456
:1013D00003F0E4FF304602F077FA4FF6FF720AA9F5
:1013E0002846CDE90A79CDE90C6403F0D7FF4FF622
:1013F000FF720AA92846CDE90AA9CDE90C8403F0B9
:10140000CDFF4FF40C730993099B0D934FF6FF72B8
:101410000AA92846CDE90A890C9603F0BFFF40F2DD
:101420006A51284603F0D1FF342221460AA818F059
:10143000B8FD3422214617A818F0B3FD484D494B9A
:101440002C61C5E900340923C5E905361D2340F2A6
:101450000D1EC5E9073A40F24313C5E909E340F21E
:10146000171840F24713C5E90B83C5E90244AC865F
:1014700085F83640284603F099FAF022FF214FF410
:10148000A073CDE90B24CDE90F144FF480694FF020
:101490000508CDE913420AA922462846CDE90D37B1
:1014A00015930A94CDE91198ADF858408DF85A403B
:1014B00003F047FB324617A92846CDE917442A4DC9
:1014C0002294CDE91944CDE91C44CDE91E98CDE91B
:1014D0002044ADF88C408DF88E4003F032FB234B56
:1014E0002B601B6898472B68214DDB689847214B80
:1014F000C5E90A47C5E90C442846C5E90034C5E9F1
:10150000027402F0AFFA3146284602F033FCFFF7CE
:1015100068F804F041FC184A1848214604F076FCAB
:10152000174B186004F052FC2CE000BF003802405A
:10153000000802400C230120000C02400010024071
:10154000B823012000300240005C0040A08601006A
:101550006023012000500140AC240120400100A084
:10156000C023012000680140B412002014000020B4
:101570006C24012000B0024020B30108E7050008F8
:1015800068240120FEE700BF7047704710B586B0A1
:1015900006AC074B04F8012D1B68029301230A4691
:1015A000CDE900430146034802F0A0FF06B010BD9C
:1015B0000C0000200C2301207FB506AA002302F8AE
:1015C000013D084B1B6802930123CDE900230A4625
:1015D0000146054803F01AF89DF8170007B05DF8BA
:1015E00004FB00BF0C0000200C2301201FB5084C99
:1015F00024680092CDE901340A46012301460548DA
:1016000003F004F8003018BF012004B010BD00BF83
:101610000C0000200C23012002F056B910B5064C36
:1016200000222046042102F0DBFC20460122042196
:10163000BDE8104002F0D4BC0008024038B50B4CA5
:10164000054601224FF40051094802F0C9FC00226E
:101650000421204602F0C4FC2846FFF761FD204625
:1016600001220421BDE8384002F0BABC0008024063
:10167000000C024038B50B4C054600224FF40051D7
:10168000094802F0ADFC00220421204602F0A8FC2B
:101690002846FFF745FD204601220421BDE83840D9
:1016A00002F09EBC00080240000C0240F7B5144C4A
:1016B000144D07460E4620460022042102F090FCFD
:1016C00000224FF40051284602F08AFC3846FFF70A
:1016D00027FD0D4B0D481B68324601A904F0EDF8BB
:1016E000284601224FF40051019E02F079FC204669
:1016F0000122042102F074FC304603B0F0BD00BFAB
:1017000000080240000C024010000020602301206D
:1017100002F0DAB80268034B9A4201D102F0C2B873
:10172000704700BF0010004082B00E4B00220092B4
:10173000596C41F480415964596C01F48041009125
:1017400000990192196C41F0805119641B6C03F0EF
:1017500080530193019B0F216FF0010002B002F052
:10176000D9B800BF003802400268094B9A4282B0E3
:101770000BD100230193074B1A6B42F480521A637A
:101780001B6B03F480530193019B02B0704700BFB1
:10179000003002400038024007B50F4B02689A4201
:1017A00016D10022A3F5F0430192196B41F4000118
:1017B00019631B6B03F40003019305215A20019B5D
:1017C00002F0A8F85A2003B05DF804EB02F0D6B896
:1017D00003B05DF804FB00BF00B002400268064B96
:1017E0009A4207D1054A136B23F4000313635A206E
:1017F00002F0D2B8704700BF00B00240003802408B
:101800002DE9F043044689B01422002103A818F002
:10181000C8FB2268244B9A4243D1244C244800251B
:101820000095236B43F004032363236B03F004034D
:101830000093009B0195236B43F001032363236B0B
:1018400003F001030193019B4FF012094FF4007361
:101850004FF001080327042603A9CDE90339CDE998
:101860000587079602F0D0FA4FF4807303A9114858
:101870000796CDE90339CDE9058702F0C5FA02954F
:10188000236C43F400032364236C03F400030293EA
:10189000029B236A43F400032362236A23F40003B8
:1018A000236209B0BDE8F083005C004000380240CC
:1018B0000008024000000240F0B504468DB014223A
:1018C000002107A818F06DFB2268574B9A4240F0A0
:1018D000A88003F55043002500955A6C534842F008
:1018E00080625A645A6C02F080620092009A0195FC
:1018F0001A6B42F020021A631A6B02F02002019266
:10190000019A02951A6B42F001021A631A6B02F0F7
:1019100001020292029A03951A6B42F002021A63C4
:101920001A6B02F002020392039A04951A6B42F0BA
:1019300040021A631A6B02F040020492049A059561
:101940001A6B42F004021A631A6B02F00402059249
:10195000059A06951A6B42F008021A631B6B03F096
:101960000803069302240E26069B0A944FF4806314
:1019700007A9CDE907340B9602F046FA41F6580361
:1019800007A92B480B96CDE907340927CDE909545F
:1019900002F03AFA032307A926480B97CDE907344A
:1019A000CDE9095402F030FA4FF4706307A92148D9
:1019B0000B96CDE90734CDE9095402F025FA4FF42E
:1019C0000C6307A91C480B96CDE90734CDE90954EF
:1019D00002F01AFAC02307A918480B96CDE907347C
:1019E000CDE9095402F010FA082307A914480B9610
:1019F000CDE90734CDE9095402F006FA4FF4A053BB
:101A000007A90D480B97CDE90734CDE9095402F039
:101A1000FBF958202A46052101F07CFF582001F0EF
:101A2000ADFF0DB0F0BD00BF0068014000140240E2
:101A3000000002400004024000180240000802407A
:101A4000000C024010B5044688B01422002103A8FF
:101A500018F0A7FA2268144B9A4223D103F5684381
:101A6000002101915A6C114842F480125A645A6C58
:101A700002F480120192019A02911A6B42F0200244
:101A80001A631B6B03F020030293029B4FF46072F6
:101A900002230321CDE903230523CDE9061303A97E
:101AA00002F0B2F908B010BD00500140001402402D
:101AB0002DE9F04186B01422002101A818F071FA36
:101AC0002B4B1C68002C4FD14FF00108C3F800804D
:101AD000284B00949A6B284842EA08029A639B6B51
:101AE00003EA08030093022703260C25009B01A9A3
:101AF0004FF63F03CDE90137CDE9046502F084F9E3
:101B000001A91E480595CDE90187CDE9034602F0FC
:101B10007BF948F2331301A919480595CDE901373E
:101B2000CDE9034602F070F94FF6837301A9154819
:101B30000595CDE90137CDE9034602F065F94CF290
:101B4000037301A910480595CDE90137CDE9034696
:101B500002F05AF9602301A90C480595CDE9013737
:101B6000CDE9034602F050F906B0BDE8F08100BFB0
:101B7000B812002000380240001402400008024061
:101B80000018024000100240000C02400004024015
:101B900030B5014689B00022362001F0BBFE362068
:101BA00001F0ECFE0025154B02951A6C144C42F026
:101BB00010021A641B6C03F01003029301A903A81E
:101BC000029B03F083FA03F071FA0E4B236040F29C
:101BD000E733E36040000C4BB0FBF3F0013860608A
:101BE00020462561A56004F01DF820B9204603F0C9
:101BF000FCFE09B030BD0120FBE700BF0038024009
:101C0000E02401200010004040420F007047FEE732
:101C1000FEE7FEE7FEE77047014803F0FABE00BFAB
:101C2000E0240120014802F02FBF00BFC0230120A3
:101C3000014802F015B800BF6C2401200120704754
:101C400008B518F057F9162303604FF0FF3008BDB0
:101C500008B518F04FF916230360FEE770B50E467D
:101C600015460C46A31B9D4201DC284670BDAFF310
:101C7000008004F8010BF5E770B50E4615460C46DA
:101C8000A31B9D4201DC284670BD14F8010BAFF385
:101C90000080F5E74FF0FF3070474FF400534B6082
:101CA00000207047012070470020704708B50A4B9C
:101CB0001968024609B90949196018686946024459
:101CC0008A4206D918F016F90C2303604FF0FF3052
:101CD00008BD1A60FCE700BFBC1200206825012087
:101CE000704710B50421044618F0A6F8204610BD30
:101CF000012908B508D003D3022909D0002002E049
:101D000001F070FA006808BD01F06CFA4068FAE76B
:101D100001F068FA8068F6E70048704764B301088C
:101D20000B20704713B5002249B102AB019203F8B2
:101D3000052D0268946801AAA04702B010BD0846AC
:101D4000FBE74089704780897047808870478379B6
:101D50008088184480B27047C07900F07F007047D7
:101D6000C079C0097047704710B50821044618F0C3
:101D700063F8204610BD704700F5967308684968FF
:101D800003C3704770477047416070477047012335
:101D900003727047704770477047704770477047CD
:101DA000044B08461988036849421B6D002209B29A
:101DB000184700BF6420012030B4C56844686A1029
:101DC0000346ED0704EB02009B6848BFA25830BCF5
:101DD00048BFD358184743682BB183682BB9C068F4
:101DE00000F001007047184670470120704700005E
:101DF0000B68084602491B6DB1F900100022184714
:101E00006420012030B4C56844686A100346ED07B9
:101E100004EB02009B6848BFA25830BC48BFD358AF
:101E2000184743682BB183682BB9C06800F00100E4
:101E30007047184670470120704710B4C468416865
:101E400062100346E40701EB02009B6848BF8A5812
:101E50005DF8044B48BFD358184743682BB18368DB
:101E60002BB9C06800F00100704718467047012088
:101E7000704710B50C21044617F0DEFF204610BD58
:101E800010B54FF4AC71044617F0D6FF204610BDD4
:101E900010B51021044617F0CFFF204610BD10B535
:101EA0005421044617F0C8FF204610BD10B510217C
:101EB000044617F0C1FF204610BD10B5542104465A
:101EC00017F0BAFF204610BD10B51021044617F0D8
:101ED000B3FF204610BD10B509F0FEFC0368BDE855
:101EE00010401B6B1847826B8A4210B40B4609D016
:101EF0000A68B0F95010146D1846002223465DF8A8
:101F0000044B18475DF8044B7047826B8A4210B44B
:101F10000B4609D00A68B0F95010146D184600221B
:101F200023465DF8044B18475DF8044B70470000EA
:101F3000054B1B783BB143682BB11A6800F10C01CB
:101F4000126E1846104770476F200120054B1B7812
:101F50003BB143682BB11A6800F10C01126E1846B0
:101F6000104770476F2001201F4B1B7810B50446A7
:101F700013B90123037210BD90F84D0094F84C3052
:101F80000130C0B2984284F84D0024D8B4F94E20F4
:101F900000210BF0BEF883B213F0010221D04FF6FE
:101FA000FF710028D8BF0A461344A4F85030B4F893
:101FB0005010238AC91A09B2A4F8501004F10C0079
:101FC00000220AF014FC6068036804F13C015B6FB6
:101FD000BDE81040184701232372002384F84D30D8
:101FE000C9E7A4F85000E2E76F2001201F4B1B78DF
:101FF00010B5044613B90123037210BD90F84D00CB
:1020000094F84C300130C0B2984284F84D0024D886
:10201000B4F94E2000210BF07CF883B213F00102DA
:1020200021D04FF6FF710028D8BF0A461344A4F808
:102030005030B4F85010238AC91A09B2A4F85010CD
:1020400004F10C0000220AF0D2FB6068036804F17E
:102050003C015B6FBDE81040184701232372002349
:1020600084F84D30C9E7A4F85000E2E76F20012062
:1020700010B50446D0F83C0158B10368DB689847B6
:1020800038B1D4F83C0103689B6898470023C4F832
:102090003C3110BD1FB50C4B1B7804468BB10B4B6C
:1020A0001C22CDE900300123CDE9022340680368FA
:1020B00069465B6F98476068036804F10C01DB6D4B
:1020C000984704B010BD00BF6F2001201CB5010867
:1020D0001FB50C4B1B7804468BB10B4B1C22CDE972
:1020E00000300123CDE902234068036869465B6F35
:1020F00098476068036804F10C01DB6D984704B0F1
:1021000010BD00BF6F200120D8B4010870B503686E
:1021100004465B6B154698472368294620469B6B0F
:10212000BDE8704018470000F8B5044617460E4653
:1021300009F0F2FB144BC4F854611C60134E144BAD
:10214000236000253068C4F84851C4F84C51114B45
:10215000C4F840310368C4F838519B68C4F83C5156
:102160000121C4F84451C4F850719847284600F042
:10217000EFFF336893F876200AB1D86C00B99868FD
:1021800010F03FFD2046F8BDBC200120702001204A
:1021900070B4010858B40108064BC0F84831002358
:1021A000C0F84C3100F5A073C0F84401C0F83C31D0
:1021B000704700BF39230008064BC0F848310023A0
:1021C000C0F84C3100F5A073C0F84401C0F83C31B0
:1021D000704700BF01250008064BC0F848310023B6
:1021E000C0F84C3100F5A073C0F84401C0F83C3190
:1021F000704700BFC92600082DE9F04707469068E0
:10220000DDF820A0994603681B6A88461546984762
:10221000B0F5B87F05D2424B424AA721424817F099
:1022200037FE686803681B6A98470F2803D83F4B3E
:102230003C4AA821F2E7E86803681B6A98470B2824
:1022400003D83B4B374AA921E8E709F045FB09F0E1
:1022500049FBD9F8000010B10368DB689847D9F84A
:10226000000010B103681B689847386810B1036814
:102270005B699847D8F8000010B103685B6898471D
:10228000386810B103681B689847D8F8000010B18F
:1022900003689B689847E868036800215B6A984771
:1022A000044620B1002343600372224B0360A868F8
:1022B000036800215B6A9847064608B100F0EAFF10
:1022C0006868036800215B6A9847054610B131468B
:1022D00000F0C6FFC9F80040C8F800503E60E5B104
:1022E0002B1DCAF800303368C5F808A03046F563E6
:1022F000DB6898472B6828461B689847214630467C
:102300000AF001FF236820461B699847236820468E
:102310005B6998472846BDE8F0872B46E1E700BF98
:1023200058B5010873B70108E6B501082DB60108D4
:10233000D0B60108B4B4010807B5D0F85431009301
:10234000D0F85021044B00F59C710448FFF754FF6E
:1023500003B05DF804FB00BFB0200120AC200120D9
:102360002DE9F84F07469068994603681B6A88462E
:1023700015469847B0F5B87F05D2574B574AA72165
:10238000574817F085FD686803681B6A98470F284F
:1023900003D8544B514AA821F2E7E86803681B6A46
:1023A0009847532803D8504B4C4AA921E8E709F035
:1023B00093FA09F097FAD9F8000010B10368DB68C6
:1023C0009847D9F8000010B103681B68984738682F
:1023D00010B103685B699847D8F8000010B1036832
:1023E0005B689847386810B103681B689847D8F84D
:1023F000000010B103689B689847E86803680021F3
:102400005B6A9847044678B306464FF0000B374B9B
:10241000C0F804B080F808B046F80C3B304607F02E
:10242000D1FA334BA663C4E90F3420220123C4E957
:1024300011231423A4F84C302E4BA4F850B01B7871
:1024400093B1DFF8B8A02C4ABAF90010B2F9002015
:10245000C4F810B03046FFF759FE304607F02EFAA8
:10246000BAF80030A4F84E30A868036800215B6A0F
:102470009847064608B100F00DFF68680368002120
:102480005B6A9847054610B1314600F0E9FEC9F88D
:102490000040C8F800503E60DDB12B1D0A9A136061
:1024A0003368AA603046F563DB6898472B68284696
:1024B0001B689847214630460AF025FE23682046CF
:1024C0001B699847236820465B6998472846BDE802
:1024D000F88F2B46E2E700BF58B501087DB8010828
:1024E000E6B501082DB60108D0B6010834B50108DB
:1024F0001CB501086F200120662001206420012006
:1025000007B5D0F854310093D0F85021044B00F5B2
:102510009C710448FFF724FF03B05DF804FB00BF83
:10252000B0200120AC2001202DE9F84F074690682B
:10253000994603681B6A884615469847B0F5047F9C
:1025400005D2574B574AA721574817F0A1FC686896
:1025500003681B6A98470F2803D8544B514AA82197
:10256000F2E7E86803681B6A9847532803D8504B82
:102570004C4AA921E8E709F0AFF909F0B3F9D9F815
:10258000000010B10368DB689847D9F8000010B16B
:1025900003681B689847386810B103685B699847FF
:1025A000D8F8000010B103685B689847386810B12C
:1025B00003681B689847D8F8000010B103689B684F
:1025C0009847E868036800215B6A9847044680B32F
:1025D00006464FF0000B374BC0F804B080F808B047
:1025E00046F80C3B304607F0EDF9334BA663C4E9DF
:1025F0000F3420220123C4E911231423A4F84C3002
:102600002E4BA4F850B01B789BB1DFF8B8A02C4A31
:10261000BAF90010B2F90020C4F810B03046FFF744
:1026200075FD304607F04AF9BAF800305B42A4F86D
:102630004E30A868036800215B6A9847064608B1D7
:1026400000F05EFE6868036800215B6A98470546F3
:1026500010B1314600F03AFEC9F80040C8F8005009
:102660003E60DDB12B1D0A9A13603368AA603046C4
:10267000F563DB6898472B6828461B689847214616
:1026800030460AF040FD236820461B6998472368BE
:1026900020465B6998472846BDE8F88F2B46E2E75D
:1026A00058B50108A2B90108E6B501082DB6010820
:1026B000D0B60108F0B40108D8B401086F20012099
:1026C000662001206420012007B5D0F85431009322
:1026D000D0F85021044B00F59C710448FFF724FF0B
:1026E00003B05DF804FB00BFB0200120AC20012046
:1026F000006A704770478B8880690A68DB0A50F867
:1027000023001044704710B5C2B1137BB3B1547BA2
:10271000D27A240204F4E0641443C26998B202EB52
:10272000840213888B4202D192F9020010BD05D8B1
:10273000013880B204320028F3D1F7E70020F5E732
:1027400010B52421044617F077FB204610BD000089
:1027500030B589B00446BDF850500695BDF84C50D0
:1027600005959DF8405004959DF83C5003959DF8C3
:10277000385002959DF8345001959DF830500095E1
:102780000AF0C6F8054B2360119BA361129BE3611D
:10279000159B2362204609B030BD00BFD4BA0108A2
:1027A0000020704781807047C18070470181704769
:1027B0004181704770477047704770477047C388C2
:1027C000D21A8388C91A036810B41B6D5DF8044BD4
:1027D00012B209B218474FF6FF7383814FF0FF33EF
:1027E00003621368C3611060704770477047704799
:1027F0007047704790F825201AB190F8242002B154
:102800001860704770477047704730B4C5684468B7
:102810006A100346ED0704EB02009B6848BFA2580C
:1028200030BC48BFD358184743682BB183682BB9D5
:10283000C06800F0010070471846704701207047DB
:1028400010B51021044617F0F7FA204610BD10B558
:102850004FF4B871044617F0EFFA204610BDF0307F
:10286000884208B505D109F037F8BDE80840FFF700
:10287000B3BC08BD094A026000228280C280028186
:1028800042818281C28102824282C0E90522C26104
:1028900080F82420012280F82520704754D40108B4
:1028A00070B503680446DB6A1546984723682946D5
:1028B00020461B6BBDE870401847000038B5262243
:1028C00004460D46002117F06CFB2046FFF7D2FFAF
:1028D000064B23604FF6FF732046E38484F82830CC
:1028E000294607F076FB204638BD00BF70D20108AC
:1028F00013460C4A70B5146805462CB90A4B0B4AAE
:102900000B48352117F0C4FA94F876200AB1E06C30
:1029100000B9A0680268946A0A46A4462946BDE840
:10292000704060477020012038BB0108F4BB0108EB
:102930007BBB01082DE9F04F044689B027460025EE
:102940000AF066FA7A4BE56347F8403B262308AE67
:102950001A46294638464FF6FF78039317F021FBB5
:102960003846FFF787FF26F8088D724A226404F183
:102970006C0B4FF0FF3384F86630A566314658463D
:10298000FFF79CFF04F19803314618460193ADF818
:102990001880FFF793FF04F1C403314618460293F1
:1029A000ADF81880FFF78AFF039B04F1F00A1A467E
:1029B0002946504617F0F5FA5046FFF75BFF039B98
:1029C000C4F81851012204F5927984F814215A4A66
:1029D00084F81C512946C4F8F020A4F81E811A4638
:1029E000A4F8208184F82281484617F0DAFA484694
:1029F000FFF740FF4FF47F02C4F858214F4B504A75
:102A0000C4F82431C4F860214E4B4F4AC4F84C310D
:102A1000C4F8545184F85C5184F85D51C4F86821BD
:102A2000C4F86C512A4629463846A4F85081C4F8A7
:102A300064410393FFF734FF3846F021FFF7B6FEF9
:102A400038464FF4A071FFF7B3FE2A4629462846C0
:102A5000FFF74EFF2A46A06629465846FFF720FF9B
:102A600031465846ADF8185007F0B3FA01986E2277
:102A70001421FFF715FF0A2231460198ADF81820FE
:102A800007F0A7FA02981F221421FFF709FF092275
:102A900031460298ADF8182007F09BFA504640F2F4
:102AA0000512A521FFF7FCFE0622ADF81420ADF8B3
:102AB000182005A93246504607F0C3F904F5B07254
:102AC000C4F818217A2284F822214846A222232120
:102AD000FFF7E6FEFF2211461046FFF709FF039BB2
:102AE000C4F85401A4F85851ADF81C503146251DC6
:102AF0004846069307F065F93946284605F0A4FBD9
:102B00005946284605F0A0FB0199284605F09CFB94
:102B10000299284605F098FB5146284605F094FB9B
:102B20002846494605F090FB204609B0BDE8F08FE5
:102B3000C8BB010804D10108CCD101085CD0010850
:102B400028BB010848B401085F2800087047704797
:102B5000704730B4C56844686A100346ED0704EB5B
:102B600002009B6848BFA25830BC48BFD3581847E2
:102B700043682BB183682BB9C06800F0010070472F
:102B8000184670470120704710B51021044617F011
:102B900053F9204610BD10B54FF40471044617F0E8
:102BA0004BF9204610BD000000F19803994270B522
:102BB000054605D108F090FEBDE87040FFF7FCBA6D
:102BC00000F5E47399426DD1374CD5F8FC30002BF9
:102BD00068DD4FF4007601220421204601F000FA5E
:102BE00000220821204601F0FBF900221021204696
:102BF00001F0F6F900222021204601F0F1F9D5F884
:102C0000FC0000F061FE00220421204601F0E8F9FA
:102C100001220821204601F0E3F90022102120467C
:102C200001F0DEF900222021204601F0D9F9D5F883
:102C3000FC0000F049FE00220421204601F0D0F9FA
:102C400000220821204601F0CBF901221021204664
:102C500001F0C6F900222021204601F0C1F9D5F883
:102C6000FC0000F031FE00220421204601F0B8F9FA
:102C700000220821204601F0B3F90022102120464D
:102C800001F0AEF901222021204601F0A9F9D5F882
:102C9000FC0000F019FE013E9DD14FF47A7000F067
:102CA00013FE92E770BD00BF0010024010B526224F
:102CB0000446002117F075F92046FFF7DBFD054BB0
:102CC00023600023A36284F82C30012384F824308D
:102CD000204610BD54CE01082DE9F04F044689B0BE
:102CE00025460AF095F84FF000097F4BC4F83C9058
:102CF00045F8403B26224946284617F052F9284617
:102D0000FFF7B8FD794B236404F16C07FF2308AE8D
:102D10004FF6FF7884F8663026224946C4F868905A
:102D20003846039326F8048D17F03BF93846FFF731
:102D3000A1FD6F4AE26631463846A4F8928084F8D5
:102D4000948004F1980B07F044F95846FFF7AEFF62
:102D500004F1CC06674A039BC4F8982084F8CA3073
:102D6000A4F8C680A4F8C880304604F5E47A05F0DB
:102D7000F9FD5046FFF79AFF039B84F8FA315E4B4A
:102D8000C4F8C8315D4BC4F800325D4BC4F808325A
:102D90004A4649462846A4F8F681A4F8F881A4F8E2
:102DA000FC81C4F80442C4F80C92FFF779FDF021CD
:102DB0002846FFF7FBFC4FF4A0712846FFF7F8FC0C
:102DC000504B1B682BB9504B504A5148352117F0D6
:102DD0005FF893F876200AB1D86C00B99868036858
:102DE000D3F8288000231A461946C0470DF1200861
:102DF00000224FF000091146A0663846FFF750FD4B
:102E000028F8049D3846414607F0E3F849465846FD
:102E10007922FFF745FD4FF00703ADF81830424621
:102E2000082306A95846ADF81C3007F00AF804F547
:102E30000073C4F8C0303046F6221F210393FFF719
:102E40002FFD0223ADF814304FF00103ADF8183018
:102E50004FF00303ADF81C3006AA434605A93046DF
:102E600005F0D4FD0E23CDE900933046012307225F
:102E7000032105F02FFC64224946304605F097FBFC
:102E80004946304605F01FFB50468D223821FFF79A
:102E900007FD0423ADF8183005234246A4F8FC31A1
:102EA00006A9504604F10408ADF81C3006F0C9FF2D
:102EB000039BC4F8F0312946404605F0C5F9394670
:102EC000404605F0C1F95946404605F0BDF9314686
:102ED000404605F0B9F94046514605F0B5F920469F
:102EE00009B0BDE8F08F00BF70BC010804D1010833
:102EF00070D20108CCD10108C0CE010858BC01082D
:102F0000A92B00087020012038BB01089CBC0108D7
:102F10007BBB01087047000030B5144D2C78BFF31F
:102F20005B8F14F001048BB01DD1284616F086FF8C
:102F3000C8B13F2307930E4B06930E4B0E490394E3
:102F40000122CDE904430423CDE90132CDE908444F
:102F50000A2300940948FFF7FBFB284616F07AFF86
:102F6000074816F0B3FF05480BB030BDC012002073
:102F70002CEE0108F8BC01088CED0108C4120020F9
:102F8000152F00087047000030B5154D2C78BFF3A1
:102F90005B8F14F001048BB01ED1284616F04EFF53
:102FA000D0B13F2307930F4B06930F4B059301239B
:102FB000CDE9034302930423CDE9004309221423FE
:102FC0000A490B48CDE90844FFF7C2FB284616F032
:102FD00041FF084816F07AFF05480BB030BD00BF2E
:102FE000E812002030EE0108FCBC01089CED01084D
:102FF000EC120020852F00087047000030B5144DFA
:103000002C78BFF35B8F14F001048BB01DD12846E0
:1030100016F014FFC8B13F2307930E4B06930E4BD7
:103020000E4903940122CDE904430423CDE9013282
:10303000CDE90844282300940948FFF789FB284676
:1030400016F008FF074816F041FF05480BB030BDE9
:103050001013002034EE010800BD01081CEE010829
:1030600014130020F92F0008002070470EB403B598
:1030700003AB002153F8042B019309F07FFA02B04F
:103080005DF804EB03B070470CB407B504AB53F81C
:10309000042B019309F072FA03B05DF804EB02B05F
:1030A00070470000C36B10B5044673B3038E2BB991
:1030B000184B194AC021194816F0EAFEC38D00EBDF
:1030C00043035B8B0BB30AF0ABFD238E012B03D8BC
:1030D000134B144AC521EEE7E28D531C9BB2092B1A
:1030E000194688BFA3F10A0104EB410140F63F10E5
:1030F000498B814209D10A2B04EB420228BF0023ED
:1031000004EB4303508B588351832046BDE81040A5
:103110000AF06ABC04BD010837BE01080DBD0108F4
:1031200057BD010865BD01080AF018BC10B586B08E
:1031300002AC84E806001A460AAB05930193099B8A
:1031400000932146089B07F056FF06B010BD000013
:1031500038B5D8B9114B12481B681249BBB11A686F
:103160009C681A4402605A681A440A601C446CB194
:103170000D4B00221A8000F035F8054600F030F8BB
:103180000A4B1C600A4B1D600A4B188038BD0A4B65
:1031900003600A4B0B600A4B1C68E8E738130020F9
:1031A0003C1300204013002044130020C0200120C5
:1031B000C8200120C42001203CEE010838EE01089F
:1031C0005CEE0108044B1B6853F82100034B1B689D
:1031D00003EB4000704700BF401300203C13002069
:1031E00001207047004870474813002010B5FFF7D2
:1031F000CBFE044C2060FFF701FF6060FFF78CFE00
:10320000A06010BD48130020704710B54FF4AC719A
:10321000044616F011FE204610BD10B50446D0F845
:10322000540100F044F82046BDE8104008F02CBAE4
:1032300010B50446FEF778FF014B2360204610BD11
:10324000ECBE0108704704387047704710B5102174
:10325000044616F0F1FD204610BDA0F10400F5E78C
:1032600010B500228260044AC16002F108042032D5
:103270000460426010BD00BF28BF0108704770475E
:10328000FFF7C1BA10B54FF4B871044616F0D4FD7B
:10329000204610BD10B50446FFF74CFB014B2360E0
:1032A000204610BD58BF01080022026070477047D9
:1032B000704704387047704710B51021044616F067
:1032C000BBFD204610BDA0F10400F5E710B50022BB
:1032D0008260044AC16002F1080420320460426046
:1032E00010BD00BF84BF010870477047FFF72FBCB7
:1032F00010B54FF40471044616F09EFD204610BD33
:1033000010B50446FFF7E8FC014B2360204610BDD2
:10331000B4BF0108F02070474FF4A0707047292017
:10332000FEF7A8B92820FEF7A5B908B5FEF776F98B
:10333000CA20FEF79FF9C320FEF780F90820FEF7A8
:103340007DF95020FEF77AF9CF20FEF793F900209F
:10335000FEF774F9C120FEF771F93020FEF76EF91F
:10336000ED20FEF787F96420FEF768F90320FEF7E9
:1033700065F91220FEF762F98120FEF75FF9E82077
:10338000FEF778F98520FEF759F90020FEF756F987
:103390007820FEF753F9CB20FEF76CF93920FEF7C1
:1033A0004DF92C20FEF74AF90020FEF747F93420AA
:1033B000FEF744F90220FEF741F9F720FEF75AF92B
:1033C0002020FEF73BF9EA20FEF754F90020FEF733
:1033D00035F90020FEF732F9B120FEF74BF9002055
:1033E000FEF72CF91B20FEF729F9B620FEF742F96B
:1033F0000A20FEF723F9A220FEF720F9C020FEF7ED
:1034000039F91020FEF71AF9C120FEF733F9102020
:10341000FEF714F9C520FEF72DF94520FEF70EF949
:103420001520FEF70BF9C720FEF724F99020FEF7D0
:1034300005F93620FEF71EF9C820FEF7FFF8F22046
:10344000FEF718F90020FEF7F9F8B020FEF712F9A0
:10345000C220FEF7F3F8B620FEF70CF90A20FEF7BB
:10346000EDF8A720FEF7EAF82720FEF7E7F804209A
:10347000FEF7E4F82A20FEF7FDF80020FEF7DEF85C
:103480000020FEF7DBF80020FEF7D8F8EF20FEF76B
:10349000D5F82B20FEF7EEF80020FEF7CFF800203D
:1034A000FEF7CCF80120FEF7C9F83F20FEF7C6F87A
:1034B000F620FEF7DFF80120FEF7C0F80020FEF747
:1034C000BDF80620FEF7BAF82C20FEF7D3F8C82086
:1034D000FEF71EF92620FEF7CDF80120FEF7AEF824
:1034E000E020FEF7C7F80F20FEF7A8F82920FEF726
:1034F000A5F82420FEF7A2F80C20FEF79FF80E2076
:10350000FEF79CF80920FEF799F84E20FEF796F892
:103510007820FEF793F83C20FEF790F80920FEF79C
:103520008DF81320FEF78AF80520FEF787F817209C
:10353000FEF784F81120FEF781F80020FEF77EF8F0
:10354000E120FEF797F80020FEF778F81620FEF746
:1035500075F81B20FEF772F80420FEF76FF81120B3
:10356000FEF76CF80720FEF769F83120FEF766F8E1
:103570003320FEF763F84220FEF760F80520FEF7DF
:103580005DF80C20FEF75AF80A20FEF757F82820BD
:10359000FEF754F82F20FEF751F80F20FEF74EF8F3
:1035A0001120FEF767F8C820FEF7B2F82920FEF7D1
:1035B00061F82C20BDE80840FEF75CB808B5FEF7BE
:1035C0002DF80321D320FEF771F880B208BD10B5A5
:1035D000C4B2022203212046FDF7D8FF0A20FEF7DD
:1035E0001BF8204600220321FDF7D0FF0220BDE892
:1035F0001040FEF711B838B50446E4B2FDF7C4FF39
:1036000000212046FDF7D8FF012105462046FDF7A1
:10361000D3FF40EA052080B238BD10B5C4B24021C6
:103620002046FDF7C9FF030607D54C212046FDF7CC
:10363000C3FF003018BF012010BD01224B212046DE
:10364000FDF7A4FF204600224B21FDF79FFF00203D
:10365000F2E773B50423C4B20E461546D7210DEB2D
:1036600003022046FDF7C2FF019B1BBA1A0DC3F3EC
:103670000B23328020462B8001224B21FDF786FF51
:1036800000224B212046FDF781FF02B070BD0000F3
:1036900010B50A4A1378984204460DD051788842F2
:1036A0000AD00BB141B90123D454FDF76DFF204678
:1036B000BDE81040FFF78BBF10BD00BF54130020C2
:1036C00010B5C4B209212046FDF776FF40F0010293
:1036D000D2B220460921BDE81040FDF757BF10B512
:1036E000C4B209212046FDF767FF092100F0FE0260
:1036F0002046BDE81040FDF749BF38B5C5B20C46BD
:1037000028460A21FDF758FF40EA0402D2B22846B3
:103710000A21BDE83840FDF739BF10B50446FDF772
:1037200034FF20461F21FFF7E8FF2046BDE8104088
:10373000FFF7C6BF38B5C5B20C4628460A21FDF7CB
:103740003BFF20EA0402D2B228460A21BDE83840F5
:10375000FDF71CBF10B50446FFF7C1FF20461F212F
:10376000BDE81040FFF7E6BF10B5C0B20C460B2114
:10377000FDF722FF204010BD1F21FFF7F5BF0A46CD
:10378000C0B20B21FDF702BF1F21FFF7F8BF38B50C
:10379000C5B20C4628461721FDF70EFF20EA0402A9
:1037A000D2B228461721BDE83840FDF7EFBE70B50C
:1037B000C4B2064604212046FDF7FEFE042100F0B7
:1037C000FB0205462046FDF7E1FE3046F021FFF7FB
:1037D000DEFF05F0F80220460421FDF7D7FE49225E
:1037E00020212046FDF7D2FE0220FDF715FF2046DE
:1037F00001222121FDF7CAFE20469A224121FDF730
:10380000C5FE204601224A21FDF7C0FE20460122C6
:103810004B21FDF7BBFE204600224B21FDF7B6FEF3
:10382000204601225621FDF7B1FE204601225821F3
:10383000FDF7ACFE204601224021FDF7A7FE204601
:10384000FF220B21FDF7A2FE0220BDE87040FDF72C
:10385000E3BE0000054BD3F8882042F47002C3F8A1
:1038600088204FF000629A60704700BF00ED00E0D2
:1038700008B50B4B1A6842F400721A601A6842F4D9
:1038800080621A601A6842F480721A60032000F0A5
:103890002FF80020FEF77CF9FDF746FF002008BD59
:1038A000003C0240034A044B11681B780B44136030
:1038B000704700BF2025012078000020014B1868C8
:1038C000704700BF2025012038B50446FFF7F6FFFA
:1038D000631C1CBF054B1B78054618BFE418FFF797
:1038E000EDFF401BA042FAD338BD00BF7800002096
:1038F000074AD36823F4E0631B041B0C43F0BF6347
:10390000000243F4003300F4E0600343D3607047E7
:1039100000ED00E0174B70B5DC68C4F30224C4F17D
:103920000705042D04F1040328BF04254FF0FF36DA
:10393000062B06FA05F38CBF033C002421EA03039F
:10394000A34006FA04F422EA0404002843EA04032C
:10395000A8BF00F160404FEA0313BCBF00F00F00A6
:10396000054ADBB2AABF00F56140135480F800336A
:1039700070BD00BF00ED00E014ED00E0002808DBA2
:103980004209012300F01F0003FA00F0014B43F845
:103990002200704700E100E000280DDB430901220E
:1039A00000F01F0002FA00F02033044A42F823001E
:1039B000BFF34F8FBFF36F8F704700BF00E100E090
:1039C00010B5044650B1437903F0FF0213B90271F8
:1039D000FDF7CAFE01236371002010BD0120FCE742
:1039E00070B50468049D666C45EA034306F04046E2
:1039F000334363644368E263B3F5403F30D1866884
:103A00001EB1012E03D121F07F41A16370BD022EB2
:103A100001F47F0301F47F45C8B207D1D90CAD0A88
:103A2000C90241EA451141EAD001EEE7032E01F057
:103A30007F420AD1DB0CED0A9B0243EA451343EABD
:103A4000D003D10F43EAC131DFE7190D2D0B090275
:103A500041EA051141EA1011130F41EA0331D4E79D
:103A6000E160D3E710B5044630B390F8393003F085
:103A7000FF021BB980F83820FDF78EFE22686168CE
:103A8000022384F83930136823F440330B43136066
:103A9000536BA16823F007030B435363136CE16876
:103AA00023F47F5323F03F030B43136400200123CF
:103AB000E06384F8393010BD0120FCE773B590F85D
:103AC0003840012C05464FF0020413D080F83940ED
:103AD0000126069C80F838600094FFF781FF2B6870
:103AE0001A6842F40C521A601A6832431A600020B5
:103AF00002B070BD2046FBE773B515461A4690F834
:103B00003830012B04464FF0020316D080F83930CC
:103B10000368012680F838605D61079B0093069B6F
:103B2000FFF75EFF23681A6842F40C521A601A68A5
:103B300032431A60002002B070BD1846FBE70268ED
:103B400038B5136823F0050343F0040313600446FB
:103B5000FFF7B4FE05462368186810F0010009D18C
:103B60001A6822F40C521A60012384F8393084F860
:103B700038000FE0FFF7A2FE401BB0F57A7FEAD9CC
:103B8000E36B43F02003E3630320002384F8390050
:103B900084F8383038BD70B505682A6842F00402F0
:103BA0002A600129044614BF24351C35FFF786FE20
:103BB0000646286810F020000AD12268136823F412
:103BC00064531360012384F8393084F838000FE01F
:103BD000FFF774FE801BB0F57A7FEAD9E36B43F000
:103BE0002003E3630320002384F8390084F838308D
:103BF00070BD000038B5054608B9012038BD164B28
:103C00001B6B190213D42B6800243F221C6028462A
:103C10009A601C619C61DC615C625C63FDF7DEFDA7
:103C2000EC6385F8384085F839402046E6E70368BC
:103C3000196811F0010104D0FFF781FF0028E2D0DC
:103C4000DBE75A6A920602D5FFF7A5FFF6E7DB69C4
:103C50009B06D8D50121F7E700380240704770472E
:103C6000036870B55E681D68F207044614D5E9055F
:103C700012D51A6822F480721A60C26B42F00102F7
:103C8000C26301229A60042380F83930002380F84F
:103C90003830436903B19847B20616D5AB0414D542
:103CA00023681A6822F400521A6020229A60E36B9B
:103CB00043F00203E363042384F83930002384F8DB
:103CC000383063690BB120469847300716D529056F
:103CD00014D523681A6822F400621A6008229A60D8
:103CE000E36B43F00403E363042384F839300023D7
:103CF00084F8383063690BB12046984772070BD5BA
:103D00006B0509D523681A6822F480621A600422C0
:103D10009A602046FFF7A2FFB00714D5A90512D577
:103D200023681A6822F400721A6002229A60E36B18
:103D3000E363012384F83930002384F838302369A1
:103D40000BB120469847F20613D5EB0411D5236832
:103D50001A6822F480521A6010229A60E36BE363BF
:103D6000012384F83930002384F838302046FFF7E7
:103D700076FF70BD90F83830012BF0B54FF002039C
:103D800036D00E01012280F83930831980F83820AE
:103D9000D3E9075245EA0242093D012D5C6A194FF9
:103DA00003680FD804F07F4C4CEA020269B9596AE3
:103DB00039400A435A6282699A61426A22F07F421C
:103DC0009A620FE042EA0462A1B1D969064439401F
:103DD0000A43012DDA6198BF24F07F44B2691A6169
:103DE00098BF1C62012380F83930002380F83830F6
:103DF0001846F0BD596A39400A435A6282699A618D
:103E0000F0E700BFF0FFFC002DE9F04F85B00B6834
:103E1000DFF8C4816E4ADFF8C491019300230124C6
:103E2000019D9C402540AC4240F0B8804C6824F095
:103E3000100C4FEA430E03260CF1FF3706FA0EF67C
:103E4000012F6FEA060611D8876807EA060ACF68CD
:103E500007FA0EF747EA0A078760476827EA050A64
:103E6000C4F300179F4047EA0A074760C76807EA9C
:103E7000060A8F6807FA0EF747EA0A07BCF1020F35
:103E8000C76016D14FEAD30A00EB8A0A03F0070B8A
:103E9000DAF820704FEA8B0B4FF00F0C0CFA0BFC8A
:103EA00027EA0C0C0F6907FA0BF747EA0C07CAF868
:103EB000207007683E4004F0030707FA0EFE4EEA42
:103EC00006060660E60069D54FF0000BCDF80CB091
:103ED000D8F844703F4E47F48047C8F84470D8F88B
:103EE000447007F480470397039F23F0030707F10B
:103EF000804707F59C3703F0030ED7F808A04FEA78
:103F00008E0E4FF00F0C0CFA0EFCB0422AEA0C0C8D
:103F10004BD006F58066B04249D006F58066B042C7
:103F200047D006F58066B04245D006F58066B042BF
:103F300043D0484543D006F50066B04241D006F56F
:103F40008066B0423FD006F58066B0423DD006F5AF
:103F50008066B04214BF0A26092606FA0EF646EA23
:103F60000C06BE601668EF4314F4803F0CBF3E4061
:103F70002E431660566814F4003F0CBF3E402E439B
:103F80005660966814F4801F0CBF3E402E43966026
:103F9000D668A40254BF3E402E43D6600133102B96
:103FA0007FF43DAF05B0BDE8F08F5E46D5E7012652
:103FB000D3E70226D1E70326CFE70426CDE705267F
:103FC000CBE70626C9E70726C7E70826C5E700BFEF
:103FD000003C014000000240003802400014024052
:103FE0000AB1816170470904FBE701684B6913F46A
:103FF00080634FF0000210D06FF480634B61202388
:10400000026380F83D3080F83E20036C80F83C204D
:1040100043F00403036401207047184670472DE9FC
:10402000F0410446164698468FB22568686937EA1B
:10403000000017D06B695A0516D52B6843F400733E
:104040002B606FF480636B6120220023236384F86C
:104050003D2084F83E30226C42F00402226484F851
:104060003C300120BDE8F081731CDFD0FFF726FC57
:10407000A0EB0800B04201D8002ED6D100232022A8
:10408000236384F83D2084F83E30226C42F0200205
:10409000E4E770B504460D46164623685B695B0786
:1040A00001D5002070BD2046FFF79FFFA8B96A1C0C
:1040B000F3D0FFF703FC801BA84201D8002DECD100
:1040C00000232022236384F83D2084F83E30226CB4
:1040D00084F83C3042F0200222640120E2E770B50F
:1040E00004460D4616462068436913F0400301D08C
:1040F000002010E04269D2060ED56FF01002426136
:104100002022236384F83D2084F83E30226C226410
:1041100084F83C30012070BDFFF7D0FB801BA84223
:1041200001D8002DDFD100232022236384F83D2015
:1041300084F83E30226C42F02002E8E72DE9F84393
:10414000089E044690461F464FEA11498DB22168E9
:10415000B9F1010F0CBF4B698B6935EA03030CBF42
:1041600001230023984501D0002016E07B1CEFD0EE
:10417000FFF7A4FB801BB84201D8002FE7D1002332
:104180002022236384F83D2084F83E30226C84F89A
:104190003C3042F0200222640120BDE8F88370B573
:1041A00004460D46164623685B691B0601D50020B0
:1041B00070BD2046FFF719FFA8B96A1CF3D0FFF7BE
:1041C0007DFB801BA84201D8002DECD100232022CA
:1041D000236384F83D2084F83E30226C84F83C3020
:1041E00042F0200222640120E2E700002DE9FF41B5
:1041F000154602680B9E9846136843F4807313605B
:104200000F460A9B009600224FF001110446FFF76B
:1042100095FF236838B11B68DB0502D54FF40073A6
:10422000236403200AE007F0FE071F610A9A194978
:1042300033462046FFF7F3FE18B1012004B0BDE875
:10424000F081236803905A6903929B690393324675
:104250000A99039B2046FFF7A2FF40B1236C042B71
:1042600001BF2268136843F400731360E5E7B8F1F7
:10427000010F236802D1EDB21D61DFE72A0A1A613E
:104280000A9932462046FFF78AFF0028E6D12368C4
:10429000F1E700BF020001002DE9FF4198460368E5
:1042A0000B9D16461A6842F480621A601A6842F43E
:1042B00080721A600F460A9B009500224FF0011190
:1042C0000446FFF73BFF236848B11B68DB0502D5B6
:1042D0004FF400732364032004B0BDE8F081FFB203
:1042E00007F0FE021A612A490A9A2B462046FFF778
:1042F00096FE08B10120EFE7236803905A69039204
:104300009B6903932A460A99039B2046FFF747FFC0
:1043100040B1236C042B01BF2268136843F400737F
:104320001360E7E7B8F1010F236825D1F6B21E61EB
:104330002A460A992046FFF732FF02460028E8D1B4
:1043400021680B6843F480730B6020460A9B00953C
:104350004FF00111FFF7F2FE23680028B5D147F0B6
:1043600001071F610A9A0A492B462046FFF757FEAC
:10437000003018BF0120AFE7320A1A610A992A46B5
:104380002046FFF70CFF0028C3D12368CEE700BF0B
:104390000200010070B5044608B9012070BD90F814
:1043A0003D3003F0FF021BB980F83C20FDF728FAEE
:1043B000242384F83D3023681A6822F001021A6031
:1043C0001A6842F400421A601A6822F400421A6025
:1043D00000F06CFE6368414A93424DD8404A9042D7
:1043E000DBD922683F495568B0FBF1F125F03F0564
:1043F0000D435560156A25F03F05013129431162CF
:10440000D169364D21F44F41AB4221F0FF0100F15B
:10441000FF3048D85B00B0FBF3F0431CC3F30B0341
:10442000042B38BF04230B43D361D4E90730116850
:10443000034321F0C0010B4313609168D4E90303E7
:1044400021F40341034321F0FF010B439360D4E9BE
:104450000530D168034321F0FF010B43D36013689B
:1044600043F00103136000202023206484F83D30D2
:10447000206384F83E0091E71B4A90428DD9226860
:10448000184E5568B0FBF6F625F03F0535435560EC
:10449000156A4FF49671714325F03F054FF47A7613
:1044A000B1FBF6F1A9E7A56855B903EB4303B0FBEF
:1044B000F3F0431CC3F30B036BB143F40043B2E7C7
:1044C00019256B43B0FBF3F0431CC3F30B0313B18B
:1044D00043F44043A7E70123A5E700BFA0860100FE
:1044E0007F841E0040420F00FF083D002DE9F74386
:1044F000044699460F4690460C9EFFF7DFF994F864
:104500003D30202B054603D0022003B0BDE8F083E8
:104510000090192301223B492046FFF70FFE002897
:10452000F2D194F83C30012BEED0012384F83C30DA
:1045300023681A68D1075EBF1A6842F001021A6048
:104540001A6822F400621A60212384F83D30402367
:1045500084F83E30002323640A9B6362BDF82C304C
:104560006385638D2385284BE362CDE900654B4667
:10457000424639462046FFF739FE00282AD001205E
:10458000C3E7FFF70CFE40B1236C042B01BF226888
:10459000136843F400731360F1E7636A27681A46EF
:1045A00012F8011B39616262628D218D013A92B26B
:1045B00062857A69481E80B2520720850AD548B1C3
:1045C0005A783A6102336362638D013B02399BB2D0
:1045D00021856385238D2A4631462046002BD0D184
:1045E000FFF757FD0028CFD12268136843F400730A
:1045F0001360202384F83D3084F83C0084F83E00AA
:1046000083E700BF020010000000FFFF2DE9F04328
:10461000044687B099460D469046109FFFF74EF925
:1046200094F83D30202B064604D00225284607B0DA
:10463000BDE8F08300901923012277492046FFF757
:104640007DFD0028F1D194F83C30012BEDD0012301
:1046500084F83C3023681A68D0075EBF1A6842F0BD
:1046600001021A601A6822F400621A60222384F898
:104670003D30402384F83E30002323640E9B636268
:10468000BDF83C306385638D2385644BE362294626
:10469000CDE900764B4642462046FFF7FDFD054634
:1046A00008B10125C2E7228D236892B902905A69A8
:1046B00002929A690292029A1A6842F400721A608F
:1046C000202384F83D30002384F83E3084F83C30C9
:1046D000ACE7012A2CD11A6822F480621A60039098
:1046E0005A6903929A690392039A1A6842F4007213
:1046F0001A60DFF82C81238D002BE1D0032B6ED8BC
:10470000012B2DD1324639462046FFF7E8FC002820
:10471000C7D123681A69636A1A70636A01336362D6
:10472000238D013B2385638D013B9BB26385E2E7CB
:10473000022A0ED11A6822F480621A601A6842F4C2
:1047400000621A6004905A6904929B690493049B66
:10475000CFE705905A6905929B690593059BC8E7C9
:10476000022B00963B464FF000024146204619D1ED
:10477000FFF7E4FC002894D123681A6842F4007221
:104780001A601A69636A1A70626A531C6362238D25
:10479000013B2385638D013B9BB2638523681B69C5
:1047A0005370BAE7FFF7CAFC024600287FF479AFDE
:1047B0002368196821F4806119601969636A1970A6
:1047C000636A009601336362238D013B2385638D09
:1047D000013B9BB2638541463B462046C8E73246D3
:1047E00039462046FFF77BFC00287FF45AAF236848
:1047F0001A69636A1A70626A531C6362238D013BF3
:104800002385638D013B9BB2638523685969490702
:104810007FF571AFC3E700BF020010000000FFFF8B
:104820000400010090F83D20D2B2202A10B516D124
:10483000242380F83D3003681C6824F001041C60C8
:104840005C6A24F010045C625C6A21435962196856
:1048500041F00101196080F83D20002010BD0220C8
:10486000FCE730B590F83D40E4B2202C16D1026848
:10487000242380F83D30156825F001051560556A40
:104880004FF6F0732B400B439BB25362136843F017
:104890000103136080F83D40002030BD0220FCE79A
:1048A0002DE9F043D20104684F68E568D1F800C0F3
:1048B000D1F818908432A3180CF10106586800F45E
:1048C00070405860E068C5F30B45C0F30B403044BE
:1048D0003D4440EA05405860E068CD68C0F30A00F6
:1048E0000544986800F470409860E6688868C6F3EC
:1048F0000A060130304440EA0540986018690E69A4
:1049000020F0070018614FF0000E1E619D6991F8BC
:10491000320091F83180C3F818E091F8305045EA40
:10492000096545EA082545EA00459D61586920F07A
:10493000FF00586148695861D86920F4E06020F0B0
:104940000700D861D1E907500543DD61986A486ADC
:10495000C3F828E098621EB3012E23D0B01E0228AF
:1049600022D9072E0CBF02200120DD6A05F0E025C8
:10497000DD628D6AC96AA7EB0C07454378430330B3
:1049800040EA0540D862186B20F4FF6020F0070071
:1049900018631963A35843F00103A350BDE8F083E3
:1049A0000420E2E70320E0E70220DEE738B5044612
:1049B000002863D090F8A13003F0FF021BB980F803
:1049C000A020FCF779FF022384F8A13023689A69BC
:1049D00022F070429A61D4E901200243E0689969AB
:1049E0000243206902430A439A619A682449606934
:1049F0000A409A609A6842EA0042A06902439A60BB
:104A0000DA68E0690A40DA60DA6842EA0042206A5D
:104A10000243DA601A69606A0A401A611A6942EA56
:104A20000042A06A02431A615A69114059615A69E9
:104A3000E16A42EA0142216B0A435A61D96A94F859
:104A4000360094F8355001F07F41D962D96A94F864
:104A500034200A4342EA052242EA0042DA625A6BF3
:104A600042F006025A639A6942F001029A610020FC
:104A70000123C4F8A40084F8A13038BD0120FCE76C
:104A800000F800F070477047036870B59E6B5D6B6F
:104A90007207044614D5690712D55A6B22F0040236
:104AA0005A630422DA63D0F8A43043F00103C0F85B
:104AB000A430002380F8A12080F8A030FFF7E2FFA7
:104AC000B20716D5AB0714D523685A6B22F0020241
:104AD0005A630222DA63D4F8A4301343C4F8A43032
:104AE000042384F8A130002384F8A0302046FFF787
:104AF000C9FFF00710D5E9070ED523685A6B22F0DD
:104B000001025A630122DA63002384F8A12084F8A9
:104B1000A0302046FCF7D4FA320711D52B070FD569
:104B200023685A6B22F008025A630822DA630123D1
:104B300084F8A130002384F8A0302046FFF7A3FFBB
:104B400070BDF8B590F8A030012B06468C4696460D
:104B50004FF002001DD034240D4686F8A10004FB5E
:104B600002640FCD0127383486F8A0700FC40FCD32
:104B70000FC40FCD0FC42B682360304672466146C8
:104B8000FFF78EFE336800205F6286F8A17086F81A
:104B9000A000F8BD90F8A030012B4FF0020312D016
:104BA00080F8A13003685A6B22F001025A63074A69
:104BB00011645A6B42F001025A63012380F8A1305C
:104BC000002380F8A0301846704700BF00680140FD
:104BD0002DE9F341044608B901203FE00368DD07F1
:104BE00010D4236898075AD423681A0700F19C80D0
:104BF00023685B0700F1BA80A069002840F01B81A0
:104C000000202BE0A74B9A6802F00C02042A07D080
:104C10009A6802F00C02082A0AD15B68590207D58B
:104C2000A04B1B689A03DCD56368002BD9D1D3E76E
:104C300063689C4DB3F5803F13D12B6843F48033F8
:104C40002B60FEF73BFE974D06462B689B03C8D4AE
:104C5000FEF734FE801B6428F7D9032002B0BDE8BC
:104C6000F081B3F5A02F04D12B6843F480232B608F
:104C7000E3E72A6822F480322A602A6822F480223C
:104C80002A60002BDDD1FEF719FE06462B689F0334
:104C9000A7D5FEF713FE801B6428F7D9DDE7814B0B
:104CA0009A6812F00C0F07D09A6802F00C02082ADA
:104CB00011D15B685E020ED47A4B1A68950702D553
:104CC000E268012A88D11A68216922F0F80242EAD2
:104CD000C1021A6088E7E268734BB2B101221A6020
:104CE000FEF7ECFD6F4D06462B68980707D52B683D
:104CF000226923F0F80343EAC2032B6074E7FEF74E
:104D0000DDFD801B0228EFD9A7E71A60FEF7D6FD6C
:104D1000644D06462B6899077FF566AFFEF7CEFD1A
:104D2000801B0228F6D998E76269604B7AB10122AC
:104D30001A60FEF7C3FD5B4D06466B6F9F073FF59C
:104D400057AFFEF7BBFD801B0228F6D985E71A6036
:104D5000FEF7B4FD534D06466B6F98077FF548AFDD
:104D6000FEF7ACFD801B0228F6D976E74D4B1A6C96
:104D700012F0805228D101921A6C42F080521A64CB
:104D80001B6C03F080530193019B0126484D2B6857
:104D9000D9051BD5A368434D012B27D12B6F43F0B9
:104DA00001032B67FEF78AFD3E4D074641F2883826
:104DB0002B6F9B0739D5002E3FF41EAF394A136C79
:104DC00023F08053136417E70026DFE72B6843F4D2
:104DD00080732B60FEF772FD07462B68DA05D9D485
:104DE000FEF76CFDC01B0228F7D936E7052B04D16E
:104DF0002B6F43F004032B67D0E72A6F22F00102E8
:104E00002A672A6F22F004022A67002BCAD1FEF714
:104E100055FD41F2883807462B6F9807CBD5FEF732
:104E20004DFDC01B4045F7D917E7FEF747FDC01BF6
:104E30004045BDD911E71B4DAB6803F00C03082BAF
:104E400047D01C4E00230228336035D1FEF736FDD3
:104E500007462B6899011ED4D4E907321343626ACE
:104E600043EA8213E26A43EA0263A26A0D4C5208E3
:104E7000013A43EA02436B6001233360FEF71EFDF3
:104E8000054623689A013FF5BBAEFEF717FD401BB0
:104E90000228F6D9E1E6FEF711FDC01B0228D8D999
:104EA000DBE600BF0038024000004742800E474268
:104EB0000070004060004742FEF700FD04462B688A
:104EC0009B017FF59DAEFEF7F9FC001B0228F6D989
:104ED000C3E601283FF4C2AE6868E36900F48002CB
:104EE0009A427FF479AE226A00F03F0393427FF446
:104EF00073AE626A47F6C073034093427FF46CAEB0
:104F0000A26A00F4403393427FF466AEE36A00F095
:104F10007060C01A18BF0120A0E600BF134908B591
:104F20008B6803F00C03042B03D0082B03D010482C
:104F300000E0104808BD4A684B68496813F48003D4
:104F400014BF0C480A48C1F3881118BF002302F0AF
:104F50003F02A1FB0001FBF79BF9044B5B68C3F325
:104F6000014301335B00B0FBF3F0E3E7003802409C
:104F70000024F40000127A002DE9F0410D460446A9
:104F800010B90120BDE8F081434B1A6802F00F020E
:104F90008A4228D321688F072DD4C80740D43E4BBE
:104FA0001A6802F00F02AA4265D8226851076BD432
:104FB000130707D5394A2169936823F4604343EA0C
:104FC000C1039360FFF7AAFF344B354A9B68C3F3D4
:104FD0000313D35CD840334B1860334B1868FCF78D
:104FE000D7FD0020CEE7CAB21A701B6803F00F038A
:104FF0008B42C6D1CEE7294B11F0040F1EBF9A6831
:1050000042F4E0529A600E0742BF9A6842F460424E
:105010009A609A68A06822F0F00202439A60BCE7A6
:1050200062681E4B012A1CD11B6813F4003FA8D0F4
:105030001A4EB36823F003031343B360FEF73EFC3C
:1050400041F288380746B368626803F00C03B3EB9B
:10505000820FA4D0FEF732FCC01B4045F3D90320D9
:1050600090E7911E01291B6802D813F0007FDEE74C
:1050700013F0020FDBE7EAB21A701B6803F00F03AC
:10508000AB427FF47EAF90E70449E0688B6823F47D
:10509000E05303438B608BE7003C02400038024042
:1050A000E0BF0108740000207C000020044B054A8A
:1050B0009B68C3F38223D35C034A1068D8407047CF
:1050C00000380240F0BF0108740000200F23036085
:1050D0000B4B9A6802F0030242609A6802F0F002F9
:1050E00082609A6802F4E052C2609B68DB0803F4B5
:1050F000E0530361034B1B6803F00F030B60704721
:1051000000380240003C0240036813F0430FF7B53B
:10511000044640F08A80236813F00C0F44D0894D78
:10512000894E00232B60FEF7C9FB074633689B00BE
:1051300000F1CC8021684F0715D5D4E90403D6F8D7
:1051400088201B0602F0E04243EA80131343C6F8AE
:105150008830D6F88C30226A23F4F853013A43EAB7
:105160000223C6F88C300E0714D5774AA369D2F80B
:10517000881020691B0701F0706143EA80130B431C
:10518000C2F88830D2F88C30616A23F440330B4384
:10519000C2F88C3001232B60FEF790FB6A4D064667
:1051A0002B68980040F1998023689A0633D5002334
:1051B0000193654B654D1A6C42F080521A641B6C6A
:1051C00003F080530193019B2B6843F480732B60A1
:1051D000FEF774FB06462B68D90540F185805A4DD1
:1051E0002B6F13F4407340F08680A36A03F440727F
:1051F000B2F5407F544A40F0A080916823F070409F
:1052000021F4F81120F4407001439160116FC3F351
:105210000B030B431367206810F010001FBF4C4BAB
:1052200094F82C201A6000204EE04A4D464E002390
:105230002B60FEF743FB074633681B013ED4216811
:10524000CF0741BFD4E901231B0743EA8213C6F805
:1052500084308E0715D53C4AE368D2F8840066682E
:105260001B0600F0E04043EA86130343C2F8843093
:10527000D2F88C00E36920F01F00013B0343C2F821
:105280008C3048060AD5E36862681B0643EA82133D
:10529000A26843EA02732C4AC2F8843001232B60CF
:1052A000FEF70CFB284D06462B6819013FF533AF7E
:1052B000FEF704FB801B0228F6D904E0FEF7FEFA95
:1052C000C01B0228B8D9032003B0F0BDFEF7F6FAE0
:1052D000C01B02287FF62AAFF5E7FEF7EFFA801B26
:1052E00002287FF65DAFEEE7FEF7E8FA801B0228A2
:1052F0007FF671AFE7E7A26A02F4407293423FF48F
:1053000074AF2B6F144A0121116023F44073002104
:1053100011602B672B6FDA077FF567AFFEF7CEFAC8
:1053200041F2883706462B6F9B073FF55EAFFEF7CD
:10533000C5FA801BB842F6D9C5E7916821F4F81187
:1053400063E700BF70004742003802400070004031
:10535000E011474268004742400E474238B50D46CB
:105360000446C8B190F82C3003F0FF021BB980F856
:105370002D20FCF79DFB022384F82C30211D206892
:1053800000F06CFC62682068294600F09DFC012357
:1053900084F82C30002038BD0120FCE738B50446E5
:1053A00090F82C00C0B202280D460DD0022384F8DC
:1053B0002C30206800F0C5FC2B68022B0CBF0523A5
:1053C000012384F82C30002038BD10B5044690F835
:1053D0002C00C0B2022809D0022384F82C302068A7
:1053E00000F0D4FC012384F82C30002010BDF8B567
:1053F00004460E4615461F4621688A6836EA0203AF
:1054000001D000202DE06B1CF7D0FEF757FAC01B2F
:105410008542F1D823685A6822F0E0025A60626837
:10542000B2F5827F0AD1A268B2F5004F02D0B2F580
:10543000806F03D11A6822F040021A60A26AB2F5A6
:10544000005F07D11A6822F400521A601A6842F409
:1054500000521A60012384F85130002384F8503040
:105460000320F8BD38B513464268B2F5827F044682
:105470001FD18268B2F5004F02D0B2F5806F07D11C
:1054800025682868B2F5806F20F04000286007D0BA
:105490000A4680212046FFF7AAFF20B9002038BD28
:1054A0000A460121F6E7636D43F02003636503209C
:1054B000F5E70A460121EEE773B51346124A134E8B
:1054C00015684268B5FBF6F64FF47A757543B2F588
:1054D000827F044601950BD10A468021FFF787FFA2
:1054E00078B1636D43F020036365032002B070BDA3
:1054F000019B33B1019B013B019323689B681B0611
:10550000F6D40020F2E700BF7400002000366E01E0
:1055100010B50446002836D00023836290F851303D
:1055200003F0FF021BB980F85020FCF78BFA2168CA
:10553000A269022384F851300B6823F040030B600A
:10554000D4E901300343E068034320690343606901
:105550000343E0690343206A0343A06A034302F460
:10556000007003430B60120C636A02F004021A43DA
:105570004A60CB6923F40063CB610020012360659E
:1055800084F8513010BD0120FCE72DE9F3411E469F
:1055900090F85030012B04460D46904600F09B8059
:1055A000012380F85030FEF789F9074694F851003E
:1055B000C0B2012840F08D80002D5DD0B8F1000F01
:1055C0005AD0032384F851300020A3686065A0639B
:1055D000A4F83680A087E087C4E91000206825631E
:1055E000B3F5004F08BF0368A4F8348004BF43F448
:1055F000804303600368E2685B065EBF036843F0B4
:1056000040030360B2F5006F63683ED113B1B8F197
:10561000010F07D135F8023BC3602563E38E013BE0
:105620009BB2E386E38E9BB2A3B93A46314620464D
:10563000FFF742FF002849D1A36833B901932368DB
:10564000DA6801929B680193019B606D003018BF7E
:10565000012011E022689368980705D5236B33F881
:10566000021BD1602363D9E7FEF728F9C01BB042C3
:10567000D8D3711CD6D00320012384F851300023E5
:1056800084F8503002B0BDE8F08113B1B8F1010FD9
:1056900008D12B780373236B01332363E38E013B23
:1056A0009BB2E386E38E9BB2002BBED023689A6840
:1056B000920703D5226B12781A73ECE7FEF7FEF817
:1056C000C01BB042EED3731CECD0D4E7202363653B
:1056D000B2E70220D0E70220D4E72DE9F7431E46C7
:1056E00090F850300A9F012B04460D46914600F079
:1056F000E280012380F85030FEF7E0F894F8513052
:105700006168DBB2012B80460AD0B1F5827F40F0A0
:10571000D080A068002840F0CC80042B40F0C980E5
:10572000002D00F0C480B9F1000F00F0C080002E01
:1057300000F0BD8094F85130C4F83890042B1CBFA1
:10574000052384F8513000236365C4E910332368CE
:10575000E687E6861A68A687500658BF1A6825634A
:1057600058BF42F04002A68658BF1A60E268B2F500
:10577000006F58D109B1012E07D135F8022BDA603C
:10578000E38E2563013B9BB2E3860125E38E9BB24A
:10579000ABB9E38F9BB293B9424639462046FFF737
:1057A0008BFE002840F08180A368002B32D1236853
:1057B0000190DA6801929B680193019B2AE02268BC
:1057C000936899070DD5E38E9BB253B14DB1236B0E
:1057D00033F8021BD1602363E38E013B9BB2E38667
:1057E00000259368DB070CD5E38F9BB24BB1A36B0D
:1057F000D26823F8022BA363E38F013B9BB2E387BC
:105800000125FEF75BF8A0EB08008742BED87E1C9E
:10581000BCD00320012384F85130002384F8503099
:1058200003B0BDE8F08309B1012E08D12A781A73BC
:10583000236B01332363E38E013B9BB2E386012597
:10584000E38E9BB21BB9E38F9BB2002BA4D02268DE
:10585000936898070ED5E38E9BB25BB155B1236B6D
:105860001B781373236B01332363E38E013B9BB2DD
:10587000E386002522689368D9070DD5E38F9BB294
:1058800053B1A36BD2681A70A36B0133A363E38F88
:10589000013B9BB2E3870125FEF710F8A0EB08005F
:1058A0008742CDD87B1CCBD0B3E720236365012092
:1058B000B0E70220AEE70220B2E72DE9F3411D4632
:1058C0004368B3F5827F0446884617460CD1836847
:1058D00053B9042380F85130134600950A46FFF768
:1058E000FCFE02B0BDE8F08194F85030012B79D075
:1058F000012384F85030FDF7E1FF064694F851008B
:10590000C0B201286CD1B8F1000F57D0002F55D08C
:10591000042384F85130A268A787002363652363BA
:10592000E787A386E386C4E910332368C4F8388088
:10593000B2F5004F02BF1A6822F480421A601A685A
:1059400057065EBF1A6842F040021A60E368F3B17E
:10595000E38F9BB2FBB123689A68D20735D5DA682A
:10596000A36B23F8022BA363E38F013B9BB2E38776
:10597000EEE723689A68D00718D5A26B1B7B1370DB
:10598000A36B0133A363E38F013B9BB2E387E38FF8
:105990009BB2002BEDD1324629462046FFF762FD2F
:1059A000D8B9606D003018BF012007E0FDF786FF11
:1059B000801BA842EBD3691CE9D00320012384F8A3
:1059C0005130002384F850308BE7FDF777FF801BC0
:1059D000A842BDD36B1CBBD0EFE720236365E0E793
:1059E0000220EBE702207CE770470368DA6842F0A8
:1059F0000102DA609A6802F00702062A1EBF1A68DE
:105A000042F001021A6000207047704770477047EB
:105A1000704703681A69910710B504460ED5DA6815
:105A200092070BD56FF002021A619B6901229B0756
:105A3000027777D0FFF7EAFF0023237723681A69FC
:105A4000500710D5DA6851070DD56FF004021A61BE
:105A50009B69022213F4407F2277204668D0FFF72B
:105A6000D5FF0023237723681A6912070FD5DA6858
:105A700010070CD56FF008021A61DB690422990740
:105A8000227720465AD0FFF7C1FF002323772368EF
:105A90001A69D20610D5DA68D0060DD56FF010025B
:105AA0001A61DB69082213F4407F227720464BD02D
:105AB000FFF7ACFF0023237723681A69D10708D5C5
:105AC000DA68D20705D56FF001021A612046FBF7AC
:105AD00021FE23681A69100608D5DA68110605D573
