:020000040800F2
:100000000000032059910008EB340008ED3400088B
:10001000EF340008F1340008F33400080000000059
:1000200000000000000000000000000061890008DE
:10003000F534000800000000F1890008558A000826
:10004000A9910008A9910008A9910008A9910008A8
:10005000A9910008A9910008A9910008A991000898
:10006000A9910008A9910008A9910008A991000888
:10007000A9910008A9910008A9910008A991000878
:10008000A9910008A9910008A9910008A991000868
:10009000A9910008A9910008A9910008A991000858
:1000A000A9910008A9910008A9910008A991000848
:1000B000A9910008A9910008A9910008A991000838
:1000C000A9910008A9910008A9910008A991000828
:1000D000A9910008A9910008A9910008A991000818
:1000E000A9910008A9910008A9910008A991000808
:1000F000A9910008A9910008A9910008A9910008F8
:10010000A9910008A9910008A9910008A9910008E7
:10011000A9910008A9910008F9340008A9910008E4
:1001200005350008A9910008A9910008A9910008C7
:10013000A9910008A9910008A9910008A9910008B7
:10014000A9910008A9910008A9910008A9910008A7
:10015000A9910008A9910008A9910008A991000897
:10016000A9910008A9910008A9910008A991000887
:10017000A9910008A9910008A991000800000000B9
:10018000A9910008A9910008A9910008A991000867
:10019000A9910008A9910008A9910008A991000857
:0C01A00011350008A99100081D35000869
:1001B00010B5054C237833B9044B13B10448AFF3A1
:1001C00000800123237010BD6001002000000000AA
:1001D000FCC8010808B5034B1BB103490348AFF342
:1001E000008008BD0000000064010020FCC8010878
:1001F00053B94AB9002908BF00281CBF4FF0FF318E
:100200004FF0FF3000F072B9ADF1080C6DE904CE8B
:1002100000F006F8DDF804E0DDE9022304B07047E1
:100220002DE9F047089E04468846002B4BD18A42B0
:10023000154667D9B2FA82F24AB1C2F1200701FA33
:1002400002F320FA07F7954047EA030894404FEA83
:10025000154E230CB8FBFEF71FFA85FC0EFB178822
:1002600043EA084307FB0CF1994209D9EB1807F15F
:10027000FF3080F01B81994240F21881023F2B44ED
:100280005B1AA4B2B3FBFEF00EFB103344EA034446
:1002900000FB0CFCA44509D92C1900F1FF3380F0B8
:1002A0000781A44540F2048102382C4440EA07400B
:1002B000A4EB0C0400271EB1D4400023C6E9004380
:1002C0003946BDE8F0878B4209D9002E00F0EB805B
:1002D0000027C6E9000138463946BDE8F087B3FA81
:1002E00083F7002F47D18B4202D3824200F2FA807B
:1002F000841A61EB030301209846002EE0D0C6E982
:100300000048DDE702B9FFDEB2FA82F2002A40F0CF
:100310008F80491B4FEA154E1FFA85F80127B1FB64
:10032000FEFC230C0EFB1C1143EA014308FB0CF1FD
:10033000994207D9EB180CF1FF3002D2994200F232
:10034000CD808446591AA3B2B1FBFEF00EFB101407
:1003500043EA044408FB00F8A04507D92C1900F132
:10036000FF3302D2A04500F2B6801846A4EB080481
:1003700040EA0C409FE7C7F1200CBB4022FA0CFE7C
:100380004EEA030E01FA07F420FA0CF521FA0CF3F9
:100390004FEA1E482543B3FBF8F92C0C08FB193330
:1003A0001FFA8EFA44EA034309FB0AF49C4202FA5C
:1003B00007F200FA07F10BD91EEB030309F1FF3036
:1003C00080F087809C4240F28480A9F10209734446
:1003D0001B1BADB2B3FBF8F008FB103345EA034436
:1003E00000FB0AFAA24508D91EEB040400F1FF3312
:1003F0006BD2A24569D90238744440EA0940A0FB97
:100400000289A4EB0A044C45C2464B4654D351D052
:10041000002E69D0B1EB0A0564EB030404FA0CFC6E
:10042000FD40FC404CEA0505C6E90054002747E7BB
:10043000C2F1200320FA03F7954001FA02F021FAF5
:1004400003F34FEA154E3843010CB3FBFEF71FFAD6
:1004500085F80EFB173341EA034107FB08F38B4293
:1004600004FA02F407D9691807F1FF3C2FD28B4236
:100470002DD9023F2944CB1A81B2B3FBFEF00EFB0B
:10048000103341EA034100FB08F38B4207D9691896
:1004900000F1FF3C17D28B4215D902382944C91A02
:1004A00040EA07473BE73746304609E70746E7E6B5
:1004B0001846FBE64145ABD2B8EB020A69EB0E02E7
:1004C00001381346A4E76046E9E7184695E7674612
:1004D000D1E781467CE702382C4447E7ACF1020CB7
:1004E0002B442FE7384608E73746E9E6704700BF58
:1004F00001F0FF01102A2BDB10F0070F08D010F8D5
:10050000013B013A8B422DD010F0070F42B3F6D1D8
:10051000F0B441EA012141EA014122F007047FF0F1
:1005200000070023F0E80256083C85EA010586EA48
:10053000010685FA47F5A3FA87F586FA47F6A5FA84
:1005400087F68EB9EED1F0BC01F0FF0102F0070290
:1005500032B110F8013B013A83EA010313B1F8D13B
:100560000020704701387047002D06BF354603381C
:10057000073815F0010F07D1013015F4807F02BF55
:10058000013015F4C03F0130F0BC0138704700BFA6
:100590007047704770477047704700F07EB910B5DC
:1005A0004FF44D7104461BF009FA204610BD0000BF
:1005B00010B5044600F01CFC014B2360204610BD22
:1005C00064C901087047704704387047704710B518
:1005D000102104461BF0F2F9204610BDA0F10400E2
:1005E000F5E7000010B500228260044AC16002F104
:1005F000080420320460426010BD00BF90C90108A9
:100600007047043870477047C0680368DB6A184752
:10061000A0F10400FFF7F8BF10B5102104461BF04D
:10062000CDF9204610BDA0F10400F5E710B5002279
:100630008260044AC16002F108042432046042600E
:1006400010BD00BFBCC901087047704700F06BBD0A
:1006500010B5044600F5B2700023C4F86431064AB0
:10066000436003810B4614210FF0BEFA04F592702B
:10067000BDE810400DF0ADBAECC9010810B54FF45B
:10068000C47104461BF09AF9204610BD10B504460B
:1006900000F0AEFD014B2360204610BDF8C90108F3
:1006A000002202607047000030B5C1B0054601A8C5
:1006B00009F038FA00233D491C4631F81320013374
:1006C0000A2B1444F9D1B4FBF3F4286803682146DB
:1006D0009B689847364B1C6040F272639C4263D91A
:1006E000344C202501220421204605F075F8002213
:1006F0000821204605F070F800221021204605F060
:100700006BF800222021204605F066F8022005F053
:10071000C7FF00220421204605F05EF801220821CF
:10072000204605F059F800221021204605F054F823
:1007300000222021204605F04FF8022005F0B0FFEE
:1007400000220421204605F047F800220821204617
:1007500005F042F801221021204605F03DF8002264
:100760002021204605F038F8022005F099FF0022EC
:100770000421204605F030F800220821204605F02B
:100780002BF800221021204605F026F80122202116
:10079000204605F021F8022005F082FF013DA1D19D
:1007A0004FF47A7005F07CFF41B030BD7814002022
:1007B000FC24012000100240024B1B680BB1FFF724
:1007C00073BF7047A4230120704700F59673086833
:1007D000496803C37047704710B54FF4AC710446C5
:1007E0001BF0ECF8204610BD10B50446D0F85401BB
:1007F000FFF7E2FF2046BDE810400CF067B910B5E6
:100800000446D0F83C0158B10368DB68984738B11A
:10081000D4F83C0103689B6898470023C4F83C3136
:1008200010BD000010B5044600F0DCFF014B236052
:10083000204610BD30CA01080020704781807047F3
:10084000C180704701817047418170477047704790
:10085000704770477047C38810B4D21A83885DF818
:10086000044BC91A036812B21B6D09B218474FF640
:10087000FF7383814FF0FF3303621368C36110601D
:1008800070477047704790F825201AB190F82420DF
:1008900002B118607047704770477047704730B4B6
:1008A000C56844686A100346ED0704EB02009B68C4
:1008B00048BFA25830BC48BFD358184743682BB133
:1008C00083682BB9C06800F0010070471846704774
:1008D0000120704710B5082104461BF06FF8204630
:1008E00010BD10B5102104461BF068F8204610BD5D
:1008F00010B54FF44D7104461BF060F8204610BD52
:1009000000F1980399422DE9F04105460E4605D1C4
:100910000CF004FABDE8F04100F0ACBF00F5E47360
:10092000994278D1EA4C0027042F05DD304600219A
:10093000BDE8F0410AF0C2B8D5F8FC30002BF5DD77
:100940004FF4007801220421204604F045FF0122E3
:100950000821204604F040FF00221021204604F028
:100960003BFF00222021204604F036FFD5F8FC0092
:1009700005F096FE00220421204604F02DFF0122FE
:100980000821204604F028FF01221021204604F00F
:1009900023FF00222021204604F01EFFD5F8FC0092
:1009A00005F07EFE00220421204604F015FF0022FF
:1009B0000821204604F010FF01221021204604F0F7
:1009C0000BFF01222021204604F006FFD5F8FC0091
:1009D00005F066FE01220421204604F0FDFE0022FF
:1009E0000821204604F0F8FE00221021204604F0E1
:1009F000F3FE01222021204604F0EEFED5F8FC0093
:100A000005F04EFEB8F101089CD14FF47A7005F064
:100A100047FE013788E700F50F73994240F0DD800B
:100A2000AB4C0027042F81DCD5F8FC30002B7FF77E
:100A30007DAF4FF4007801220421204604F0CCFE63
:100A400000220821204604F0C7FE00221021204683
:100A500004F0C2FE00222021204604F0BDFED5F89D
:100A6000FC0005F01DFE00220421204604F0B4FE27
:100A700001220821204604F0AFFE0022102120466A
:100A800004F0AAFE00222021204604F0A5FED5F89D
:100A9000FC0005F005FE00220421204604F09CFE27
:100AA00000220821204604F097FE01221021204652
:100AB00004F092FE00222021204604F08DFED5F89D
:100AC000FC0005F0EDFD00220421204604F084FE28
:100AD00000220821204604F07FFE0022102120463B
:100AE00004F07AFE01222021204604F075FED5F89C
:100AF000FC0005F0D5FDB8F101089CD14FF47A70E7
:100B000005F0CEFD4FF4007800220421204604F0C9
:100B100063FE00220821204604F05EFE0022102120
:100B2000204604F059FE01222021204604F054FE04
:100B3000D5F8FC0005F0B4FD00220421204604F0A5
:100B40004BFE00220821204604F046FE012210211F
:100B5000204604F041FE00222021204604F03CFE05
:100B6000D5F8FC0005F09CFD00220421204604F08D
:100B700033FE01220821204604F02EFE002210211F
:100B8000204604F029FE00222021204604F024FE05
:100B9000D5F8FC0005F084FD01220421204604F074
:100BA0001BFE00220821204604F016FE0022102120
:100BB000204604F011FE00222021204604F00CFE05
:100BC000D5F8FC0005F06CFDB8F101089CD14FF49C
:100BD0007A7005F065FD013724E700F51D73994231
:100BE00074D13B4C0027042F3FF7A0AED5F8FC3062
:100BF000002B7FF79BAE4FF40078012204212046A2
:100C000004F0EAFD00220821204604F0E5FD002260
:100C10001021204604F0E0FD00222021204604F0AF
:100C2000DBFDD5F8FC0005F03BFD00220421204649
:100C300004F0D2FD01220821204604F0CDFD00225F
:100C40001021204604F0C8FD00222021204604F097
:100C5000C3FDD5F8FC0005F023FD00220421204649
:100C600004F0BAFD00220821204604F0B5FD01225F
:100C70001021204604F0B0FD00222021204604F07F
:100C8000ABFDD5F8FC0005F00BFD00220421204649
:100C900004F0A2FD00220821204604F09DFD002260
:100CA0001021204604F098FD01222021204604F066
:100CB00093FDD5F8FC0005F0F3FCB8F101089CD1D8
:100CC0004FF47A7005F0ECFC01378CE7BDE8F08159
:100CD00000100240094A026000228280C280028124
:100CE00042818281C28102824282C0E90522C261C0
:100CF00080F82420012280F82520704764F0010844
:100D000070B503680446DB6A154698472368294690
:100D100020461B6BBDE870401847000010B5262226
:100D2000044600211AF0D1FE2046FFF7D3FF054B01
:100D300023600023A36284F82C30012384F824303C
:100D4000204610BD48EA010810B5262204460021BD
:100D50001AF0BBFE2046FFF7BDFF094B2360094B8D
:100D6000A3624FF6FF73A3854FF47F020023C4E90B
:100D70000C3284F8383084F83930204610BD00BF7A
:100D800028EC010874CA010870B513460B4A1468B0
:100D900005462CB90A4B0B4A0B4835211AF01AFEAE
:100DA00094F876200AB1E06C00B9A0680268946AF1
:100DB0000A46A4462946BDE870406047A8210120A4
:100DC00094CA010848CB0108D7CA010810B50446E7
:100DD000FFF7A4FF4FF6FF73044AE385238684F8E8
:100DE00032302260A386204610BD00BF18EB0108F8
:100DF0002DE9F04F044691B0A04600250DF032FADF
:100E0000C14BE56348F8403B4FF0260A524629465D
:100E100040461AF05AFE4046FFF75CFFFF2710AE2F
:100E200004F16C0BB94B236452464FF6FF79294607
:100E3000A56684F86670584626F8089D1AF045FEA7
:100E40005846FFF747FFB24BE3663146A4F892904D
:100E500084F8949058460AF0DEFA04F19803184694
:100E600004F1CC0A0393FFF759FFAA4BC4F898305A
:100E7000A4F8C690A4F8C89084F8CA70504608F048
:100E800051FE04F5E47318460493FFF79FFF04F541
:100E9000007318460593FFF757FF04F50F731846C4
:100EA0000693FFF793FF04F51D7318460793FFF7AA
:100EB0008DFF04F52B7318460893FFF745FF04F5E3
:100EC0003A7318460993FFF73FFF934BC4F8243356
:100ED000924BC4F82C332A46C4F830532946404676
:100EE000C4F82843FFF70CFF4046F021FFF7AAFCA7
:100EF00040464FF4A071FFF7A7FC2A462946284632
:100F0000FFF742FF2A46A06629465846FFF7F8FE3B
:100F100031465846ADF838500AF07DFA2946039814
:100F20007922FFF7EDFE4FF00709082332460DA99D
:100F30000398ADF83490ADF838300AF0A4F804F511
:100F40004973C4F8C030504640F2151221210A936B
:100F5000FFF7D6FE4FF002034FF001014FF0030000
:100F6000ADF83030ADF83410ADF8380033460DAA86
:100F70000CA9504608F02AFE8223CDE900534A46C8
:100F800001235046032108F085FC0E2229465046D5
:100F900008F0EDFB2946504608F075FB04983B220B
:100FA0003821FFF7ADFE4FF005090DF1340C614615
:100FB000042332460498A4F8FC91ADF834300B9326
:100FC000ADF838900AF05FF80A9BC4F8F031059844
:100FD00022223F21FFF794FE3A4639463846FFF772
:100FE000D3FE4FF001014E4BC4F83002A4F8345246
:100FF000ADF83C1005980E9331460AF004F80698B7
:101000008D223921FFF77CFE0B9B0698A4F8709285
:1010100032460DA9ADF83430ADF838900AF033F807
:101020000A9AC4F864220798DE223921FFF768FE85
:101030000B9B0798A4F8A89232460DA9ADF834305E
:10104000ADF838900AF01FF80A9AC4F89C22089864
:10105000C5223921FFF754FE3A4639463846FFF794
:1010600093FE2F4BC4F8DC02A4F8E0524FF00202CA
:10107000314608980E93ADF83C2009F0C4FF09985A
:1010800074223B21FFF73CFE3A4639463846FFF7CB
:101090007BFEC4F818034FF00300214BA4F81C5347
:1010A000ADF83C00251D314609980E9309F0ABFFC1
:1010B0004146284608F0A8F95946284608F0A4F900
:1010C0000399284608F0A0F95146284608F09CF9F3
:1010D0000499284608F098F90599284608F094F9EB
:1010E0000699284608F090F90799284608F08CF9E7
:1010F0000899284608F088F92846099908F084F9E3
:10110000204611B0BDE8F08F1CCB0108D0EC0108DF
:1011100080EE010834ED010884CA010801090008C5
:1011200074CA010870477047704730B4C568446896
:101130006A100346ED0704EB02009B6848BFA25803
:1011400030BC48BFD358184743682BB183682BB9CC
:10115000C06800F0010070471846704701207047D2
:1011600010B5102104461AF029FC204610BD10B518
:101170004FF4C47104461AF021FC204610BDF03033
:10118000884208B505D10BF0C9FDBDE8084000F064
:1011900081BB08BD70B504461E46BDF91050FFF76F
:1011A000AFFD2368314620465A6B90472368294695
:1011B00020469B6BBDE870401847000038B52622DA
:1011C00004460D4600211AF080FC2046FFF782FD00
:1011D000064B23604FF6FF732046E38484F82830E3
:1011E00029460AF018F9204638BD00BF80EE0108F4
:1011F0002DE9F04F04468BB0274600250DF032F85C
:10120000894BE56347F8403B0AAE2622294638461B
:101210001AF05BFC4FF6FF7B3846FFF75BFD26F8C4
:1012200008BD824B23644FF0FF0A04F16C0384F87D
:1012300066A031461846A5660393FFF7BFFF04F189
:101240009803314618460493ADF820B0FFF7B6FF77
:1012500004F1C403184604F1F00931460593ADF8D2
:1012600020B0FFF7ABFF2622294648461AF02DFC96
:101270004846FFF72FFD012304F5927884F81431D6
:101280006B4BC4F8F03026222946A4F81EB1A4F80E
:1012900020B184F822B1C4F8185184F81C5140469A
:1012A0001AF013FC4046FFF715FD624BC4F84C31B1
:1012B0004FF47F03C4F858315F4BC4F824315F4BBF
:1012C000C4F878315E4BC4F880314FF4A073A4F8B1
:1012D00050B100932A46F02329463846C4F85451A9
:1012E00084F85C5184F85D51C4F86051C4F87C41C5
:1012F000C4F88451FFF74EFF2A4629462846FFF7D7
:1013000043FD2A46A06629460398FFF7F9FC3146BB
:101310000398ADF820500AF07EF86E22142104984C
:10132000FFF7EEFC4FF00A0B31460498ADF820B001
:101330000AF071F81F2214210598FFF7E1FC092338
:1013400031460598ADF820300AF065F840F20512F4
:10135000A5214846FFF7D4FC0623324607A9484694
:10136000ADF81C30ADF8203009F08DFE04F5BC73EB
:10137000C4F818317A2384F822311A230093A0226A
:1013800085233B214046FFF705FF52465146504614
:10139000FFF7FAFC2B4BC4F854011B68A4F8585112
:1013A00004F5B27A2BB9284B284AB12128481AF003
:1013B00011FB284B1B88042B03D8274B234AB2214F
:1013C000F4E7264B0421186800F0FCFE244A03468B
:1013D000594650460EF008FC164BADF824503146E5
:1013E000251D4046C4F860A1089309F00CFE39465B
:1013F000284608F009F80399284608F005F80499EA
:10140000284608F001F80599284607F0FDFF4946EF
:10141000284607F0F9FF2846414607F0F5FF204629
:101420000BB0BDE8F08F00BF9CCC0108D0EC0108E8
:1014300034ED010874CA0108D8ED0108ACCB0108ED
:101440007F110008F8210120BCCB0108C8CC01089D
:10145000FECB0108FC2101203FCC01080422012021
:1014600091CC010870477047416070477047012375
:1014700003727047704770477047704770477047F6
:10148000044B08461988036849421B6D002209B2C3
:10149000184700BF9A21012030B4C56844686A101B
:1014A0000346ED0704EB02009B6848BFA25830BC1E
:1014B00048BFD358184743682BB183682BB9C0681D
:1014C00000F0010070471846704701207047000087
:1014D0000B68084602491B6DB1F90010002218473D
:1014E0009A21012030B4C56844686A100346ED07AC
:1014F00004EB02009B6848BFA25830BC48BFD358D9
:10150000184743682BB183682BB9C06800F001000D
:101510007047184670470120704710B4C46841688E
:1015200062100346E40701EB02009B6848BF8A583B
:101530005DF8044B48BFD358184743682BB1836804
:101540002BB9C06800F001007047184670470120B1
:10155000704710B50C2104461AF030FA204610BD31
:1015600010B54FF4AC7104461AF028FA204610BDAD
:1015700010B5102104461AF021FA204610BD10B50E
:10158000542104461AF01AFA204610BD10B5102155
:1015900004461AF013FA204610BD10B55421044633
:1015A0001AF00CFA204610BD10B5102104461AF0AE
:1015B00005FA204610BD10B50BF0B0FB0368BDE87E
:1015C00010401B6B184710B4826B8A420B4609D03F
:1015D0000A68B0F95010146D1846002223465DF8D1
:1015E000044B18475DF8044B704710B4826B8A4275
:1015F0000B4609D00A68B0F95010146D1846002245
:1016000023465DF8044B18475DF8044B7047000013
:10161000054B1B783BB143682BB11A6800F10C01F4
:10162000126E184610477047A5210120054B1B7804
:101630003BB143682BB11A6800F10C01126E1846D9
:1016400010477047A521012010B51F4B1B78044699
:1016500013B90123037210BD90F84D0094F84C307B
:101660000130C0B2984284F84D0024D8B4F94E201D
:1016700000210CF078FF83B213F0010221D04FF665
:10168000FF710028D8BF0A461344A4F85030B4F8BC
:101690005010238AC91A09B2A4F8501004F10C00A2
:1016A00000220CF0C6FA6068036804F13C015B6F2D
:1016B000BDE81040184701232372002384F84D3001
:1016C000C9E7A4F85000E2E7A521012010B51F4B9F
:1016D0001B78044613B90123037210BD90F84D0026
:1016E00094F84C300130C0B2984284F84D0024D8B0
:1016F000B4F94E2000210CF036FF83B213F0010242
:1017000021D04FF6FF710028D8BF0A461344A4F831
:101710005030B4F85010238AC91A09B2A4F85010F6
:1017200004F10C0000220CF084FA6068036804F1F4
:101730003C015B6FBDE81040184701232372002372
:1017400084F84D30C9E7A4F85000E2E7A521012054
:101750001FB50C4B1B7804468BB10B4B1C22CDE9FB
:1017600000300123CDE902234068036869465B6FBE
:1017700098476068036804F10C01DB6D984704B07A
:1017800010BD00BFA5210120C4CD01081FB50C4B21
:101790001B7804468BB10B4B1C22CDE90030012392
:1017A000CDE902234068036869465B6F984760682B
:1017B000036804F10C01DB6D984704B010BD00BF55
:1017C000A521012080CD010870B5036804465B6B3C
:1017D000154698472368294620469B6BBDE8704014
:1017E00018470000F8B5044617460E460BF0B6FA47
:1017F000144BC4F854611C60134E144B2360002535
:101800003068134BC4F83851C4F83C51C4F8403127
:10181000C4F84451C4F84851C4F84C51C4F850714C
:10182000036801219B689847284600F091FC3368C3
:1018300093F876200AB1D86C00B9986812F083FF4B
:101840002046F8BDF4210120A821012018CD01086F
:1018500000CD0108064BC0F848310023C0F84C31D8
:1018600000F5A073C0F84401C0F83C31704700BFD8
:10187000F5190008064BC0F848310023C0F84C3178
:1018800000F5A073C0F84401C0F83C31704700BFB8
:10189000BD1B0008064BC0F848310023C0F84C318E
:1018A00000F5A073C0F84401C0F83C31704700BF98
:1018B000851D00082DE9F04707469068DDF820A057
:1018C000994603681B6A884615469847B0F5C47F59
:1018D00005D2424B424AA72142481AF07BF8686879
:1018E00003681B6A98470F2803D83F4B3C4AA8213E
:1018F000F2E7E86803681B6A98470B2803D83B4B5C
:10190000374AA921E8E70BF009FA0BF00DFAD9F8EC
:10191000000010B10368DB689847D9F8000010B1E7
:1019200003681B689847386810B103685B6998477B
:10193000D8F8000010B103685B689847386810B1A8
:1019400003681B689847D8F8000010B103689B68CB
:101950009847E868036800215B6A9847044620B10D
:10196000002343600372224B0360A86803680021D0
:101970005B6A9847064608B1FEF788FE6868036808
:1019800000215B6A9847054610B13146FEF74EFECE
:10199000C9F80040C8F800503E60E5B12B1DCAF8F8
:1019A0000030C5F808A03368F5633046DB68984717
:1019B0002B6828461B689847214630460CF0CDFD21
:1019C000236820461B699847236820465B6998472F
:1019D0002846BDE8F0872B46E1E700BF00CE0108AE
:1019E00015D001088ECE0108CFCE010872CF0108B4
:1019F0005CCD010807B5D0F854310093D0F85021E0
:101A0000044B00F59C710448FFF754FF03B05DF8E8
:101A100004FB00BFE8210120E42101202DE9F84F5B
:101A200007469068994603681B6A8846154698479A
:101A3000B0F5C47F05D2574B574AA721574819F034
:101A4000C9FF686803681B6A98470F2803D8544B7E
:101A5000514AA821F2E7E86803681B6A98475328AF
:101A600003D8504B4C4AA921E8E70BF057F90BF08B
:101A70005BF9D9F8000010B10368DB689847D9F822
:101A8000000010B103681B689847386810B10368FC
:101A90005B699847D8F8000010B103685B68984705
:101AA000386810B103681B689847D8F8000010B177
:101AB00003689B689847E868036800215B6A984759
:101AC000044678B306464FF0000B374BC0F804B01D
:101AD00080F808B046F80C3B304609F095F8334BD7
:101AE000A663C4E90F3420220123C4E9112314237F
:101AF000A4F84C302E4BA4F850B01B7893B1DFF80B
:101B0000B8A02C4ABAF90010B2F90020C4F810B0FD
:101B10003046FFF759FE304608F0F1FFBAF80030C2
:101B2000A4F84E30A868036800215B6A984706460F
:101B300008B1FEF7ABFD6868036800215B6A98474F
:101B4000054610B13146FEF771FDC9F80040C8F8EE
:101B500000503E60DDB12B1D0A9A1360AA60336805
:101B6000F5633046DB6898472B6828461B68984722
:101B7000214630460CF0F1FC236820461B6998474B
:101B8000236820465B6998472846BDE8F88F2B46B6
:101B9000E2E700BF00CE01081FD101088ECE010888
:101BA000CFCE010872CF0108DCCD0108C4CD0108F9
:101BB000A52101209C2101209A21012007B5D0F800
:101BC00054310093D0F85021044B00F59C71044827
:101BD000FFF724FF03B05DF804FB00BFE8210120FC
:101BE000E42101202DE9F84F0746906899460368E3
:101BF0001B6A884615469847B0F54D7F05D2574B6E
:101C0000574AA721574819F0E5FE686803681B6A20
:101C100098470F2803D8544B514AA821F2E7E868A7
:101C200003681B6A9847532803D8504B4C4AA92194
:101C3000E8E70BF073F80BF077F8D9F8000010B173
:101C40000368DB689847D9F8000010B103681B6887
:101C50009847386810B103685B699847D8F8000066
:101C600010B103685B689847386810B103681B6857
:101C70009847D8F8000010B103689B689847E86857
:101C8000036800215B6A9847044680B306464FF01C
:101C9000000B374BC0F804B080F808B046F80C3B96
:101CA000304608F0B1FF334BA663C4E90F3420225D
:101CB0000123C4E911231423A4F84C302E4BA4F8BB
:101CC00050B01B789BB1DFF8B8A02C4ABAF90010CD
:101CD000B2F90020C4F810B03046FFF775FD304669
:101CE00008F00DFFBAF800305B42A4F84E30A86847
:101CF000036800215B6A9847064608B1FEF758FC66
:101D00006868036800215B6A9847054610B1314650
:101D1000FEF768FCC9F80040C8F800503E60DDB12D
:101D20002B1D0A9A1360AA603368F5633046DB689E
:101D300098472B6828461B689847214630460CF088
:101D40000CFC236820461B699847236820465B6982
:101D500098472846BDE8F88F2B46E2E700CE0108F9
:101D600044D201088ECE0108CFCE010872CF0108FF
:101D700098CD010880CD0108A52101209C210120DA
:101D80009A21012007B5D0F854310093D0F85021A2
:101D9000044B00F59C710448FFF724FF03B05DF885
:101DA00004FB00BFE8210120E421012013B500223B
:101DB00049B102AB019203F8052D0268946801AAAB
:101DC000A04702B010BD0846FBE7408970478089F4
:101DD00070478088704783798088184480B2704744
:101DE000C07900F07F007047C079C0097047006A71
:101DF000704770478B8880690A68DB0A50F82300B7
:101E00001044704710B5C2B1137BB3B1547BD27A82
:101E1000240204F4E0641443C26998B202EB840221
:101E200013888B4202D192F9020010BD05D8013807
:101E300080B204320028F3D1F7E70020F5E710B5AF
:101E40002421044619F0BAFD204610BD30B589B0F2
:101E50000446BDF850500695BDF84C5005959DF8C8
:101E6000405004959DF83C5003959DF838500295DC
:101E70009DF8345001959DF8305000950BF06AFFA5
:101E8000054B2360119BA361129BE361159B2362A9
:101E9000204609B030BD00BF74D3010830B5154DE0
:101EA0002C78BFF35B8F14F001048BB01FD1284650
:101EB00019F05CFDD8B13F2307930F4B06930F4BEE
:101EC0000F4903940122CDE904430423CDE90132F3
:101ED000CDE908440A2300940A48FFF7B7FF2846D3
:101EE00019F050FD084A0949064819F062FD0548F5
:101EF0000BB030BD7C0100200C110208C0D30108DA
:101F0000480F02088001002000000020F31D000897
:101F100030B5154D2C78BFF35B8F14F001048BB0F6
:101F20001FD1284619F022FDD8B13F2307930F4B4C
:101F300006930F4B0F4903940122CDE90443042378
:101F4000CDE90132CDE90844282300940A48FFF77F
:101F50007DFF284619F016FD084A0949064819F080
:101F600028FD05480BB030BDA4010020081102086F
:101F7000C4D30108700F0208A8010020000000204F
:101F8000F31D000830B5164D2C78BFF35B8F14F0AD
:101F900001048BB020D1284619F0E8FCE0B13F23C2
:101FA0000793104B0693104B05930123CDE9034390
:101FB000029304231C220D490D48CDE90043CDE9CD
:101FC00008441423FFF742FF284619F0DBFC094AB6
:101FD0000949074819F0EDFC05480BB030BD00BFBA
:101FE000CC01002010110208C8D30108800F02089C
:101FF000D001002000000020F31D0008704710B53C
:102000000421044619F0DAFC204610BD012908B568
:1020100008D003D3022909D0002002E000F012F812
:10202000006808BD00F00EF84068FAE700F00AF812
:102030008068F6E700487047E0D301080B2070473E
:102040000520704700487047F401002010B5FFF7E5
:1020500099FF044C2060FFF75BFF6060FFF71EFFF5
:10206000A06010BDF4010020002070470EB403B53D
:1020700003AB002153F8042B01930BF0A1FC02B039
:102080005DF804EB03B070470CB407B504AB53F82C
:10209000042B01930BF094FC03B05DF804EB02B049
:1020A0007047000010B5C36B044673B3038E2BB9A1
:1020B000184B194AC021194819F08CFCC38D00EB4C
:1020C00043035B8B0BB30CF0D5FF238E012B03D89E
:1020D000134B144AC521EEE7E28D531C9BB2092B2A
:1020E000194688BFA3F10A0104EB410140F63F10F5
:1020F000498B814209D10A2B04EB420228BF0023FD
:1021000004EB4303508B588351832046BDE81040B5
:102110000CF094BEBCD40108E9D50108C5D401086F
:1021200009D5010817D501080CF042BE10B586B0DC
:1021300002AC84E806001A460AAB05930193099B9A
:1021400000932146089B0AF078F906B010BD000004
:1021500038B5D8B9114B12481B681249BBB11A687F
:102160009C681A4402605A681A440A601C446CB1A4
:102170000D4B00221A80FFF765FF0546FFF760FF51
:102180000A4B1C600A4B1D600A4B188038BD0A4B75
:1021900003600A4B0B600A4B1C68E8E70002002052
:1021A00004020020080200200C020020F821012077
:1021B00000220120FC210120A8AC070884AC0708FC
:1021C000A4AC0708044B1B6853F82100034B1B68A1
:1021D00003EB4000704700BF08020020040200200B
:1021E000012380F8741080F8753070470020704724
:1021F00000207047836B0BB10846184770474FF6B5
:10220000FF707047406803689B69184770477047C4
:10221000034B902283F85A2383F85823704700BF5A
:1022200000E100E0094A0A49D3680A48C3F30A03F7
:10223000013B9BB20B801169C1F30A010139018096
:102240001364536B43F0010353637047006801400C
:10225000100200200E020020014B986A704700BF58
:1022600084680140024B0122996243F8602C704758
:102270008468014008B531B90A4B0B4A0B4840F25B
:102280006B2119F0A7FBC0E90F1200320849436423
:1022900018BF01220A700033064A18BF01231370C9
:1022A00008BD00BF94D601080BD70108CCD60108A1
:1022B000A4210120A521012007F0D7BC07F0FBBD18
:1022C00010B5044608F05CFA23682046D3F8903035
:1022D000BDE81040184790F877301BB1406803689C
:1022E0001B6818471846704730B590F8744090F84E
:1022F0003410104B8C421A780DD05AB90E4A0F493F
:102300000F4814880F4D0C800188118029800480AB
:1023100001221A7030BD002AFCD00948074A018802
:102320001180054A074D14882C80118004800022FA
:10233000EFE700BF9E2101209A210120A02101206A
:102340009C210120A2210120034B4FF080629A6062
:102350004FF080729A60704700E100E0084B4FF048
:102360008062C3F88820BFF34F8FBFF36F8F4FF0A9
:102370008072C3F88820BFF34F8FBFF36F8F704711
:1023800000E100E070B5044607F072FF2368DD6CE1
:102390000AF0C4FC01462046A8472368044A1D6F82
:1023A0002046AC460023A2F51631BDE870406047D8
:1023B000005802D010B5134B134A1B6C1188134CF4
:1023C0008B4213D1124B198804F01EF9226892F83F
:1023D0006630013382F8663000F024FA206808F095
:1023E000CFF90020BDE8104000F01FBC04F00CF94C
:1023F000002000F01BFC20680368BDE810409B69CA
:10240000184700BF0068014010020020A8210120E9
:102410000E02002003685B6C1847012070470368B8
:102420009B6A184782B0002301930D4B1A6B42F44C
:1024300000021A631A6B02F400020192019A1A69EF
:1024400042F400021A611A6922F400021A61054B73
:10245000054A1A61054B4FF080629A6002B07047DE
:1024600000380240002501207924000800E100E046
:1024700040F2EF1070470000024B1B685868036879
:102480005B691847A821012008B50B280BD8DFE8A5
:1024900000F01206100A0A0A0A08080808080120B3
:1024A00008BD0520FCE7054B054A0648652119F0E3
:1024B00091FA0020F4E70220F2E700BF73D7010889
:1024C00048D801088ED7010808B50A2809D8DFE8DE
:1024D00000F010060E08080808060606060001208F
:1024E00008BD054B054A0648862119F073FA0020FD
:1024F000F6E70220F4E700BF73D7010894D801087B
:102500008ED70108F8B50C46487FFFF7BDFFA77FBF
:1025100006463846FFF7B8FF05463846FFF7D4FFB2
:10252000238AE28AD21A4F4B1A64218AE28A521A0B
:102530009A61218AA28A521A1A615863218A628A90
:1025400042EA01425A64E268DA636268DA60226849
:10255000207F402A77D024D8042A3DD0202A72D068
:1025600046EA00603F4B40F40030D861627F0B2A9E
:1025700074D1A1680A1DDA62DA69498822F47F42BF
:1025800022F01002013942F0100242EA0122DA611F
:10259000DA6942F02002DA61DA6992065AD500BFA0
:1025A000FAE7802A04D0B2F5807FD9D12E4A00E024
:1025B0002E4A42EA0060D861A1690A02480102F489
:1025C000780200F47C40C9000243C9B20A431A628F
:1025D0005D62E2685A6133E046EA006040F4003030
:1025E000D8615D62E2685A61627F0B2A27D1A168D7
:1025F0001F480A1DDA620A783AB1012A16D01D4B2B
:102600001D4A1E48FC2119F0E5F9DA6949880240A3
:10261000013942EA0122DA61124BDA6942F0200202
:10262000DA61DA69910608D500BFFAE7DA69498804
:102630000240013942F01002EBE710229A60094B88
:102640000F4A1A60F8BD46EA0060064B40F40030BD
:10265000D861BDE710229A600A4AF2E740F20122EF
:10266000EFE700BF00B00240090002000A000200CC
:10267000EF00FFFF59D7010808D801088ED70108DD
:10268000010202000102010010B5887F0C46FFF72D
:102690001BFF254B5863218A628A42EA01425A6431
:1026A000E268DA63E28A218A521A1A642268082AE6
:1026B00020D1218AE28A521A9A61218AE28A521A28
:1026C0001A615862217F194A42EA0162DA61A169FE
:1026D0000A02480102F4780200F47C40C900024377
:1026E000C9B20A431A62E2685A61E268DA60104AC3
:1026F0001A6010BD0022D8611A61A27FA1691AB9BF
:102700009963094B0B4AF3E70A02480102F4780285
:1027100000F47C40C900C9B202430A43217F42EA67
:1027200001629A63EDE700BF00B0024009000100BA
:102730000102020001020300054B0360054B4FF04C
:102740008062C3F88820BFF34F8FBFF36F8F70474D
:10275000C0D7010800E100E010B50446FFF7ECFF28
:1027600020464FF4426119F029F9204610BD0000BF
:1027700070B505462C460A4B0C30002668602E7258
:102780006E7244F8203B6022214608F029F905F5D5
:102790004263A6612034A342FBD1284670BD00BF2E
:1027A000C0D70108012108B50022084605F0EEFD5A
:1027B0000A4B186028B90A4B0A4A25210A4819F021
:1027C00009F900220421012005F0AAFE074B186038
:1027D00018B9074B034A2921F0E708BD1802002069
:1027E000E1D8010895D901082AD90108140200206E
:1027F00053D90108024B4FF0FF31186805F01CBE99
:1028000018020020014B186805F052BE1802002083
:10281000024B0021186805F00FBE00BF180200200F
:10282000FFF7F0BF03480449006800231A4605F08B
:10283000BDBE00BF140200200400002013B5084CE8
:1028400000231A4601A9206805F0F2FE4FF0FF337D
:10285000002201A9206805F0EBFE02B010BD00BF08
:1028600014020020704770477047012070475420C1
:102870007047542303FB010008307047542303FBC7
:10288000010008307047012070474FF44D707047C9
:102890004FF44D7303FB0100083070474FF44D7344
:1028A00003FB01000830704701207047102070477B
:1028B00000EB01100830704700EB01100830704742
:1028C0000846FEF7C7BF000010B5034B036004467F
:1028D00006F0EEFC204610BD34DA010810B50446BF
:1028E000FFF7F2FF20465C2119F068F8204610BD82
:1028F00010B5034B0360044606F0DAFC204610BD19
:1029000000DA010810B50446FFF7F2FF20464FF445
:102910004F7119F053F8204610BD000010B5034B5D
:102920000360044606F0C4FC204610BDCCD9010863
:1029300010B50446FFF7F2FF2046182119F03EF8C3
:10294000204610BD10B5084B0360044600F55A70D0
:10295000FFF7BAFF04F12C00FFF7CAFF04F11400DF
:10296000FFF7DCFF204610BD68DA010810B5044609
:10297000FFF7E8FF20464FF4A46119F01FF8204646
:1029800010BD00002DE9F341FFF754FB0546FFF7AA
:1029900055FB0024014623462846224600940DF0AC
:1029A000EFF9274B274A284D1A602046FFF7D0FB46
:1029B00026480DF027F92B78BFF35B8FDB0738D45F
:1029C000284618F0D3FF002833D0214C214B236038
:1029D00004F5727604F1140004F12C0804F55A771A
:1029E0006060C4F80880E760266106F063FC1A4B5B
:1029F0006361404606F05EFC184BE362384606F021
:102A000059FC174BC4F8683304F57170FDF748FEA4
:102A1000224604F571713046FDF704FF3046FEF79B
:102A200019FF284618F0AEFF0E4A0F49204618F04D
:102A3000C0FF0E4802B0BDE8F04100F0F4B800BF9E
:102A400004220120E01300201C02002008000020C6
:102A50002002002068DA0108CCD9010800DA010858
:102A600034DA010800000020452900086413002022
:102A7000014800F0AFB800BF6413002010B5042176
:102A8000044618F09BFF204610BD10B5782104467F
:102A900018F094FF204610BD10B57C21044618F0B4
:102AA0008DFF204610BD0000F8B5364C364D374F2F
:102AB000374B38492B602246284618F07AFF364EAD
:102AC0003846FFF755FE22463449384618F071FF64
:102AD000304610F0D7F922463149304618F069FFE8
:102AE00022463049304818F064FF3048304941668A
:102AF0003049C56000230122C0E90176C0E90433F2
:102B0000C0E90633C0E90833038580F82A30C36280
:102B10000386C0E90E33C0E9103380F8483080F8EE
:102B2000492080F84A30C0E91333436580F86830A3
:102B300080F8693080F86A3080F86B3080F86C304B
:102B4000036780F8753080F8763080F87720086069
:102B500019491A4E80F87820F0250D804FF4A071A5
:102B60003180174E80F834203370164B1D80164B81
:102B70001980164B036022461549BDE8F84018F04D
:102B800018BF00BF000000204007002044070020BD
:102B900038DB010865280008E41300203927000805
:102BA00067280008FD1F00080800002064130020AB
:102BB00001000001A82101209A2101209C2101206F
:102BC0009E210120A0210120A22101207CDA010800
:102BD0006928000808B5036804469B6E9847236877
:102BE00020461B6E9847FFF729FE236820469B6D01
:102BF0009847292000F01EFCFFF720FE236820469E
:102C00009B6D9847F8E7FFF727BBFFF72BBBFFF754
:102C100053BBFFF7FDBAFFF797BBFFF79FBBFFF76B
:102C200001BB07F01CB8FFF7ADBB7047704770479A
:102C300038B50C4B0C4C18800C4B82201980636803
:102C4000984740F6110398420AD1094D23682C6039
:102C5000822098472B688220DB689847002038BD87
:102C60000120FCE75C140020240000205E140020FA
:102C7000601400204FF4A071F020FFF7D9BF0000CE
:102C8000F7B52C4D2B6804461B698220984780B20B
:102C9000208000284BD02B680DF106025B6901A94A
:102CA00082209847BDF80630A3F5B4739BB20B227F
:102CB000B3FBF2F333B1204A12889A423CBF02F1CF
:102CC000FF339BB2BDF8042040F6B8318A4295BF6D
:102CD000C2F57162C2F56D620E320832ADF80420A1
:102CE000BDF804100F22B1FBF2F131B1134A128882
:102CF0008A423CBF02F1FF3189B2114E114D30685A
:102D00002F6882B2814288BF8A1AB8B298BF521A1D
:102D1000BB428CBF181AC01A92B280B20244052A74
:102D2000C4BF31602B60336863802B68A38003B01D
:102D3000F0BD00BF601400205E1400205C14002071
:102D4000641400206814002037B568460D46144608
:102D5000FFF796FFBDF8000030B1BDF802302B60E0
:102D6000BDF804302360012003B030BD054BD3F81B
:102D7000882042F47002C3F888204FF000629A6005
:102D8000704700BF00ED00E030B5014689B0002279
:102D9000362002F051FA362002F082FA0025154B57
:102DA00002951A6C144C42F010021A641B6C03F06A
:102DB0001003029301A903A8029B01F071F901F02D
:102DC0005FF90E4B236040F2E733E36040000C4BA9
:102DD000B0FBF3F00138606020462561A56001F08A
:102DE0002DFB20B9204601F008FA09B030BD0120C2
:102DF000FBE700BF00380240AC2201200010004079
:102E000040420F0007B5064B02A91B6821F8020DCE
:102E10000122044802F0BCFD03B05DF804FB00BFD2
:102E2000140000204023012008B500F059FE00F0F6
:102E300069FE012005F090FAF9E70000F0B53024B2
:102E4000A1B02246002108A818F03FFE142200215C
:102E500003A818F03AFE2246002114A818F035FE07
:102E60000024224B01941A6C42F080521A641B6CAD
:102E700003F080530193019B1D4B02941A6842F4A6
:102E800040421A601B6803F4404302930122029BF4
:102E90004FF48033CDE9082302254FF48003CDE9B8
:102EA0000E5308274FF4A873042608A8CDE9107321
:102EB0001295139600F072FE0F23CDE903354FF4FF
:102EC000A0514FF48053CDE9061303A805210594C2
:102ED00001F038F8C023189314A84FF40033149766
:102EE0001A961D9303F0F0FB21B0F0BD00380240AC
:102EF000007000402DE980489DB00024C44D03F0CF
:102F0000A3FBFFF79BFF142200210FA818F0DDFDA3
:102F100002942B6BBF4843F020032B632B6B03F011
:102F200020030293029B03942B6B43F080032B63DB
:102F30002B6B03F080030393039B04942B6B43F0F0
:102F400004032B632B6B03F004030493049B05948D
:102F50002B6B43F001032B632B6B03F001030593F1
:102F6000059B06942B6B43F002032B632B6B03F042
:102F700002030693069B07942B6B43F040032B63DD
:102F80002B6B03F040030793079B08942B6B43F0D4
:102F900010032B632B6B03F010030893089B099419
:102FA0002B6B43F008032B632B6B03F0080309938F
:102FB00022460421099B02F00FFC22464FF44051A7
:102FC0009548012602F008FC02274FF004080FA9DB
:102FD00090481194CDE90F86129702F017FB4FF439
:102FE00040530FA98C48CDE90F36CDE9114702F0C7
:102FF0000DFB3C230DEB03018848CDE90F36CDE9ED
:10300000114402F003FB01942B6B43F480032B6308
:103010002B6B834D03F48003052122460193382056
:10302000019B02F009F9382002F03AF97D487E4B05
:10303000036003F077FC7D4A7D4B2C62C5E90023D9
:1030400028464FF48043C5E90434C5E90244C5E984
:10305000064401F061FC1021284602F053F8214695
:10306000284602F071F87348734984624FF4827302
:10307000C0E900134FF400751823C0E906530A2372
:103080006E4DC362C0E90244C0E90444C0E908448B
:1030900002F03EFC6A4B0F97C5E900364FF0100A6C
:1030A0004023C5E904A34FF4C073C5E906344FF4C7
:1030B0000063C5E908344FF400534FF0030BAB62D3
:1030C0000FA907232846CDE9103812934FF00809BD
:1030D000C5E90248CDE913B7159700F015FD4FF685
:1030E000FF720BA92846CDE90C960A940B960E9414
:1030F00000F02AFD304603F0D3FA4FF6FF720BA919
:103100002846CDE90B79CDE90D6400F01DFD4FF6A1
:10311000FF720BA92846CDE90BB9CDE90D8400F06B
:1031200013FD4FF40C730A930A9B0E934FF6FF7234
:103130000BA92846CDE90B890D9600F005FD40F25C
:103140006A51284600F017FD342221460FA818F0D6
:10315000BCFC3C4D3C4B2C61C5E900340923C5E95E
:1031600005361D2340F20D1CC5E9073B40F2431311
:10317000C5E909C340F2171E40F24713C5E90BE346
:10318000C5E90244AC8685F83640284603F036F996
:10319000FF21F022CDE914144FF4806805214FF48B
:1031A000A073CDE91024CDE91681CDE918420FA90D
:1031B00022462846CDE91237244D1A930F94ADF8D4
:1031C0006C408DF86E4003F0F6F9214B2B601B68C4
:1031D000DFF88C9098472B681E4DDB6898471E4B94
:1031E000C5E90A47C5E90C442846C5E90034C5E9E4
:1031F000027402F001F93146284602F0BDF9174D7C
:10320000524621460FA818F060FC4FF4803329E0A5
:103210000038024000080240000C0240001002404A
:10322000EC2201209823012000300240005C004085
:10323000A08601004023012000500140802501208C
:10324000400100A0A8230120006801406C14002068
:103250004C0000200025012000B002405024012035
:1032600000200140C5E9009328464FF0C0634FF0AD
:10327000805AC5E90A3AAC602E612C7685F8204068
:10328000EC60EE6185F830606C6102F0B3FD0FA96F
:103290002846CDE90F46234D119402F049FF1C2228
:1032A00021460FA8CDE90B444FF0804B18F00DFCE0
:1032B00042F2CF03C5E900B35323C5E903342846DE
:1032C0008023AB61AC6001F0D3F820230BA9284622
:1032D000CDE90B3401F05AFF22460FA92846CDE96B
:1032E0000F441194139401F013F903F02BFB04F035
:1032F000A3FF0D4A3146304605F048F80B4B0C4A07
:10330000186021460B4804F0D1FF0B4B0B4A1860A4
:1033100021460B4804F0CAFF0A4B186004F0A6FFD0
:10332000FEE700BF4025012084DB0108A423012023
:1033300060DB010849690008F8240120C0DB0108AE
:10334000292E0008A02301207047704710B586B0D1
:1033500006AC074B04F8012D1B68029301230A46B3
:10336000CDE900430146034801F086FB06B010BDDD
:1033700010000020EC2201207FB506AA002302F8ED
:10338000013D084B1B6802930123CDE900230A4647
:103390000146054801F004FC9DF8170007B05DF8F0
:1033A00004FB00BF10000020EC2201201FB5084CD8
:1033B00024680092CDE901340A46012301460548FC
:1033C00001F0EEFB003018BF012004B010BD00BFBB
:1033D00010000020EC22012003F062B910B5064C69
:1033E00000222046042102F0F7F9204601220421A0
:1033F000BDE8104002F0F0B90008024038B50B4CAF
:10340000054601224FF40051094802F0E5F9002277
:103410000421204602F0E0F92846FFF7F3FC20469D
:1034200001220421BDE8384002F0D6B9000802406C
:10343000000C024038B50B4C054600224FF40051F9
:10344000094802F0C9F900220421204602F0C4F91B
:103450002846FFF7D7FC204601220421BDE838406A
:1034600002F0BAB900080240000C0240F7B5144C53
:10347000144D07460E4620460022042102F0ACF906
:1034800000224FF40051284602F0A6F93846FFF713
:10349000B9FC0D4B0D481B68324601A902F010FC27
:1034A000284601224FF40051019E02F095F9204672
:1034B0000122042102F090F9304603B0F0BD00BFB4
:1034C00000080240000C02401400002040230120AC
:1034D00003F0E6B80268034B9A4201D103F0CEB87C
:1034E000704700BF0010004070477047FEE7FEE7DE
:1034F000FEE7FEE770470000014800F093BE00BF02
:10350000AC220120014801F033BD00BF9824012006
:10351000014802F0EFBF00BFA8230120014801F0DD
:103520009BBF00BF0025012008B50A4B1968024661
:1035300009B9094919601868694602448A4206D9DE
:1035400018F074FA0C2303604FF0FF3008BD1A60C6
:10355000FCE700BF701400200026012082B00E4B53
:1035600000220092596C41F480415964596C01F475
:103570008041009100990192196C41F080511964C9
:103580001B6C03F080530193019B0F216FF001002E
:1035900002B001F051BE00BF0038024070B50646CF
:1035A00088B01422002103A818F08FFA3268204B4B
:1035B0009A423AD103F58C33002501955A6C1D4887
:1035C0001D4C42F480725A645A6C02F4807201926B
:1035D000019A02951A6B42F001021A631B6B03F009
:1035E00001030293029B0122032303A9CDE90323D4
:1035F00002F00CF8114B4FF48061C4E900354FF430
:1036000000634FF40050C4E904134FF48073C4E91D
:1036100006032046C4E90255C4E9085501F0E4FB5D
:1036200008B1FFF761FFB463A66308B070BD00BFC7
:103630000020014000000240982401201064024054
:103640000268094B9A4282B00BD100230193074BC9
:103650001A6B42F480521A631B6B03F4805301937C
:10366000019B02B0704700BF0030024000380240AA
:1036700007B50F4B02689A4216D10022A3F5F0431A
:103680000192196B41F4000119631B6B03F40003F1
:10369000019305215A20019B01F0CEFD5A2003B071
:1036A0005DF804EB01F0FCBD03B05DF804FB00BF66
:1036B00000B002402DE9F043044689B014220021F5
:1036C00003A818F002FA2268244B9A4243D1244CF2
:1036D000244800250095236B43F004032363236BE8
:1036E00003F004030093009B0195236B43F0010357
:1036F0002363236B03F001030193019B4FF0120935
:103700004FF400734FF001080327042603A9CDE905
:103710000339CDE90587079601F078FF4FF48073F0
:1037200003A911480796CDE90339CDE9058701F0D2
:103730006DFF0295236C43F400032364236C03F4B0
:1037400000030293029B236A43F400032362236A6B
:1037500023F40003236209B0BDE8F083005C00405D
:10376000003802400008024000000240F0B5044664
:103770008DB01422002107A818F0A7F92268574B32
:103780009A4240F0A88003F55043002500955A6CFA
:10379000534842F080625A645A6C02F08062009290
:1037A000009A01951A6B42F020021A631A6B02F01C
:1037B00020020192019A02951A6B42F001021A63EB
:1037C0001A6B02F001020292029A03951A6B42F000
:1037D00002021A631A6B02F002020392039A049522
:1037E0001A6B42F040021A631A6B02F04002049214
:1037F000049A05951A6B42F004021A631A6B02F0E0
:1038000004020592059A06951A6B42F008021A63A3
:103810001B6B03F00803069302240E26069B0A94F2
:103820004FF4806307A9CDE907340B9601F0EEFE53
:1038300041F6580307A92B480B96CDE90734092711
:10384000CDE9095401F0E2FE032307A926480B97AE
:10385000CDE90734CDE9095401F0D8FE4FF4706387
:1038600007A921480B96CDE90734CDE9095401F0A9
:10387000CDFE4FF40C6307A91C480B96CDE9073425
:10388000CDE9095401F0C2FEC02307A918480B96E0
:10389000CDE90734CDE9095401F0B8FE082307A9A2
:1038A00014480B96CDE90734CDE9095401F0AEFE7A
:1038B0004FF4A05307A90D480B97CDE90734CDE984
:1038C000095401F0A3FE58202A46052101F0B4FC5A
:1038D000582001F0E5FC0DB0F0BD00BF00680140CC
:1038E00000140240000002400004024000180240A0
:1038F00000080240000C024010B5044688B01422B3
:10390000002103A818F0E1F82268144B9A4223D151
:1039100003F56843002101915A6C114842F480126A
:103920005A645A6C02F480120192019A02911A6B45
:1039300042F020021A631B6B03F020030293029BE8
:103940004FF4607202230321CDE903230523CDE95F
:10395000061303A901F05AFE08B010BD0050014043
:10396000001402400368B3F1804F82B00BD10023F2
:103970000193064B1A6C42F001021A641B6C03F0AF
:1039800001030193019B02B0704700BF0038024061
:103990002DE9F04186B01422002101A818F095F815
:1039A0002B4B1C68002C4FD14FF00108C3F800804E
:1039B000284B00949A6B284842EA08029A639B6B52
:1039C00003EA08030093022703260C25009B01A9A4
:1039D0004FF63F03CDE90137CDE9046501F016FE4E
:1039E00001A91E480595CDE90187CDE9034601F0FF
:1039F0000DFE48F2331301A919480595CDE90137A9
:103A0000CDE9034601F002FE4FF6837301A9154884
:103A10000595CDE90137CDE9034601F0F7FD4CF2FC
:103A2000037301A910480595CDE90137CDE9034697
:103A300001F0ECFD602301A90C480595CDE90137A3
:103A4000CDE9034601F0E2FD06B0BDE8F08100BF1C
:103A500074140020003802400014024000080240A4
:103A60000018024000100240000C02400004024016
:103A70000120704708B517F0D9FF162303604FF0F7
:103A8000FF3008BD08B517F0D1FF16230360FEE72D
:103A900070B50E4615460C46A31B9D4201DC284618
:103AA00070BDAFF3008004F8010BF5E770B50E466A
:103AB00015460C46A31B9D4201DC284670BD14F838
:103AC000010BAFF30080F5E74FF0FF3070474FF484
:103AD00000534B6000207047012070470020704762
:103AE00008B50A220449054802F03CFA0448BDE83A
:103AF000084000F082BB00BF781400205024012051
:103B0000402501207047704738B50D460446C8B1BE
:103B100090F82C3003F0FF021BB980F82D20FFF73E
:103B200037FF022384F82C30211D206801F0C6FBEA
:103B300062682068294601F0F7FB012384F82C30E5
:103B4000002038BD0120FCE738B5044690F82C0071
:103B5000C0B202280D460DD0022384F82C30206814
:103B600001F01FFC2B68022B0CBF0523012384F8F6
:103B70002C30002038BD10B5044690F82C00C0B29F
:103B8000022809D0022384F82C30206801F02EFC92
:103B9000012384F82C30002010BD00002DE9F341F2
:103BA000044608B9012041E00368DD0710D423680A
:103BB00098075AD423681A0700F19C8023685B0792
:103BC00000F1BA80A069002840F01C8100202DE09F
:103BD000A44B9A6802F00C02042A07D09A6802F0FB
:103BE0000C02082A0AD15B68590207D59D4B1B6855
:103BF0009A03DCD56368002BD9D1D3E76268994B6F
:103C0000B2F5803F15D11A6842F480321A606368B9
:103C1000F3B102F03FFD934D06462B689B03C6D4DB
:103C200002F038FD801B6428F7D9032002B0BDE8FC
:103C3000F081B2F5A02F1A6803D142F480221A60F5
:103C4000E1E722F480321A601A6822F48022DDE76C
:103C500002F020FD834D06462B689F03A7D502F096
:103C600019FD801B6428F7D9DFE77E4B9A6812F0B4
:103C70000C0F07D09A6802F00C02082A11D15B6879
:103C80005E020ED4774B1A68950702D5E268012AC6
:103C900088D11A68216922F0F80242EAC1021A604A
:103CA00088E7E268704BB2B101221A6002F0F2FCC0
:103CB0006C4D06462B68980707D52B68226923F0C0
:103CC000F80343EAC2032B6074E702F0E3FC801BB5
:103CD0000228EFD9A9E71A6002F0DCFC614D064624
:103CE0002B6899077FF566AF02F0D4FC801B022891
:103CF000F6D99AE762695D4B7AB101221A6002F047
:103D0000C9FC584D06466B6F9F073FF557AF02F051
:103D1000C1FC801B0228F6D987E71A6002F0BAFCC2
:103D2000504D06466B6F98077FF548AF02F0B2FC26
:103D3000801B0228F6D978E74A4B1A6C12F08052A1
:103D40002BD101921A6C42F080521A641B6C03F062
:103D500080530193019B0126454D2B68D9051ED543
:103D6000A268404B012A2AD11A6F42F001021A6759
:103D7000A368002B37D002F08DFC3A4D074641F284
:103D800088382B6F9B0728D5002E3FF41BAF354A90
:103D9000136C23F08053136414E70026DCE72B68D0
:103DA00043F480732B6002F075FC07462B68DA053C
:103DB000D6D402F06FFCC01B0228F7D935E7052ADC
:103DC0001A6F03D142F004021A67CDE722F0010214
:103DD0001A671A6F22F00402C9E702F05BFCC01BED
:103DE0004045CED921E702F055FC1E4D074641F271
:103DF00088382B6F9807C7D502F04CFCC01B404594
:103E0000F7D912E7174DAB6803F00C03082B46D027
:103E1000184E00230228336034D102F03BFC0746E1
:103E20002B68990128D4D4E907321343626A43EA24
:103E30008213E26A43EA0263A26A0A4C5208013A18
:103E400043EA02436B600123336002F023FC054622
:103E500023689A013FF5BAAE02F01CFC401B022811
:103E6000F6D9E2E60038024000004742800E4742A1
:103E7000007000406000474202F00CFCC01B0228AA
:103E8000CED9D2E602F006FC04462B689B017FF5F2
:103E90009DAE02F0FFFB001B0228F6D9C5E6012803
:103EA0003FF4C4AE6868E36900F480029A427FF48C
:103EB00079AE226A00F03F0393427FF473AE626AE8
:103EC00047F6C073034093427FF46CAEA26A00F4DD
:103ED000403393427FF466AEE36A00F07060C01A2C
:103EE00018BF0120A2E600BF08B513498B6803F094
:103EF0000C03042B03D0082B03D0104800E010481B
:103F000008BD4A684B68496813F4800314BF0C4825
:103F10000A48C1F3881118BF002302F03F02A1FB39
:103F20000001FCF765F9044B5B68C3F301430133FF
:103F30005B00B0FBF3F0E3E7003802400024F4003C
:103F400000127A002DE9F0410D46044610B9012017
:103F5000BDE8F081454B1A6802F00F028A422AD36D
:103F600023689E072FD42368D90743D43F4B1A6890
:103F700002F00F02AA4268D823685A076ED4236859
:103F80001B0707D53A4A2169936823F4604343EA43
:103F9000C1039360FFF7A8FF354B364A9B68C3F314
:103FA0000313D35CD840344B1860344B1868FEF7C9
:103FB000EBFE0020CCE7CAB21A701B6803F00F03B7
:103FC0008B42C4D1CCE7580741BF294A936843F4D8
:103FD000E05393602368264A13F0080F1EBF9368CE
:103FE00043F4604393609368A16823F0F0030B43AC
:103FF0009360B8E762681E4B012A1CD11B6813F45A
:10400000003FA4D01A4EB36823F003031343B360F8
:1040100002F040FB41F288380746B368626803F05B
:104020000C03B3EB820FA1D002F034FBC01B404560
:10403000F3D903208CE7911E01291B6802D813F0E5
:10404000007FDEE713F0020FDBE7EAB21A701B68AD
:1040500003F00F03AB427FF47AAF8DE7044AE168C7
:10406000936823F4E0530B43936088E7003C0240DD
:104070000038024048DB01080C0000201C00002032
:10408000044B054A9B68C3F38223D35C034A106840
:10409000D84070470038024058DB01080C0000206F
:1040A0000F2303600B4B9A6802F0030242609A6888
:1040B00002F0F00282609A6802F4E052C2609B68EB
:1040C000DB0803F4E0530361034B1B6803F00F03A9
:1040D0000B60704700380240003C0240036A23F046
:1040E00001030362036A70B5446882690D6822F0B7
:1040F00073022A438D6823F002032B430E4DA8421E
:1041000002D00E4EB04210D1CE6823F008033343E4
:10411000A84223F0040302D0084DA84205D1D1E9FA
:10412000055624F4407435432C43446082614A6848
:104130004263036270BD00BF000001400004014003
:10414000036A23F480730362036A70B54468C2692A
:104150000D6822F073022A438D6823F4007343EA4A
:104160000523114DA84203D005F58065A84214D15E
:10417000CD6823F4006343EA05230B4DA84223F4E2
:10418000806303D005F58065A84206D1D1E90556C4
:1041900024F44054354344EA05144460C2614A683B
:1041A000C263036270BD00BF00000140036A23F4D4
:1041B00080530362036A30B54468C2690D6822F413
:1041C000E64242EA05228D6823F4005343EA0533B0
:1041D000084DA84203D005F58065A84204D14D6979
:1041E00024F4804444EA85144460C2614A6802644D
:1041F000036230BD0000014070470268D36843F09D
:104200000103D36003689A6802F00702062A1EBF02
:104210001A6842F001021A60002070477047704728
:104220007047704710B503681A69910704460FD5A7
:10423000DA6892070CD56FF002021A610123037746
:1042400003689B699B077AD0FFF7E9FF0023237778
:1042500023681A69500711D5DA6851070ED56FF037
:1042600004021A610223237723689B6913F4407FB9
:1042700020466AD0FFF7D3FF0023237723681A690B
:10428000120710D5DA6810070DD56FF008021A6111
:10429000042323772368DB69990720465BD0FFF767
:1042A000BEFF0023237723681A69D20611D5DA6886
:1042B000D0060ED56FF010021A6108232377236809
:1042C000DB6913F4407F20464BD0FFF7A8FF0023A3
:1042D000237723681A69D10708D5DA68D20705D58C
:1042E0006FF001021A612046FFF7F4F823681A699B
:1042F000100608D5DA68110605D56FF080021A613C
:10430000204600F086FF23681A69520608D5DA684D
:10431000500605D56FF040021A612046FFF781FF75
:1043200023681A69910622D5DA6892061FD56FF0C4
:1043300020021A612046BDE8104000F069BFFFF777
:104340006DFF2046FFF76CFF80E7FFF767FF204611
:10435000FFF766FF90E7FFF761FF2046FFF760FF7A
:104360009FE7FFF75BFF2046FFF75AFFAFE710BD5F
:10437000304A0368904212D0B0F1804F0FD0A2F5BE
:104380007C4290420BD002F58062904207D002F549
:104390008062904203D002F57842904219D14A6877
:1043A00023F070031343234A904229D0B0F1804F89
:1043B00026D0A2F57C42904222D002F58062904243
:1043C0001ED002F5806290421AD002F578429042E7
:1043D00016D0194A904213D002F5806290420FD055
:1043E00002F5806290420BD0A2F59832904207D03D
:1043F00002F58062904203D002F58062904203D1C0
:10440000CA6823F4407313434A6923F080031343BB
:1044100003608B68C3620B688362064B984203D0CB
:1044200003F58063984201D10B6903630123436163
:10443000704700BF000001400040014010B5044635
:10444000A0B190F83D3003F0FF021BB980F83C208A
:10445000FFF7D2FE022384F83D302068211DFFF7CC
:1044600087FF012384F83D30002010BD0120FCE7C8
:1044700010B50446A0B190F83D3003F0FF021BB91F
:1044800080F83C20FFF76EFA022384F83D30206864
:10449000211DFFF76DFF012384F83D30002010BD82
:1044A0000120FCE7036A23F010030362036A70B57E
:1044B000446882690D6822F4E64242EA05228D686A
:1044C00023F0200343EA0513104DA84203D005F55D
:1044D0008065A84214D1CD6823F0800343EA051318
:1044E0000A4DA84223F0400303D005F58065A84299
:1044F00006D1D1E9055624F44064354344EA8504E5
:10450000446082614A688263036270BD00000140BA
:1045100038B590F83C30012B04464FF0020018D01B
:10452000012384F83C3084F83D001D460C2A0BD84A
:10453000DFE802F0070A0A0A100A0A0A140A0A0A3D
:1045400018002068FFF7CAFD002084F83D5084F869
:104550003C0038BD2068FFF7A5FFF5E72068FFF7AE
:10456000EFFDF1E72068FFF721FEEDE701684B69F9
:1045700013F480634FF0000210D06FF480634B613E
:104580002023026380F83D3080F83E20036C80F8E1
:104590003C2043F004030364012070471846704731
:1045A0002DE9F0410446164698468FB225686869A1
:1045B00037EA000018D06B695A0517D52B6843F409
:1045C00000732B6023686FF480625A6100232022FD
:1045D000236384F83D2084F83E30226C42F00402CC
:1045E000226484F83C300120BDE8F081731CDED0E9
:1045F00002F050F8A0EB0800B04201D8002ED5D14F
:1046000000232022236384F83D2084F83E30226C6E
:1046100042F02002E4E770B504460D4616462368D2
:104620005B695B0701D5002070BD2046FFF79EFF48
:10463000A8B96A1CF3D002F02DF8801BA84201D85B
:10464000002DECD100232022236384F83D2084F840
:104650003E30226C84F83C3042F02002226401207B
:10466000E2E770B504460D4616462068436913F02C
:10467000400301D0002010E04269D2060ED56FF051
:10468000100242612022236384F83D2084F83E30EA
:10469000226C226484F83C30012070BD01F0FAFFE6
:1046A000801BA84201D8002DDFD1002320222363E4
:1046B00084F83D2084F83E30226C42F02002E8E786
:1046C0002DE9F843089E044690461F464FEA1149DB
:1046D0008DB22168B9F1010F0CBF4B698B6935EAC6
:1046E00003030CBF01230023984501D0002016E0EE
:1046F0007B1CEFD001F0CEFF801BB84201D8002F09
:10470000E7D100232022236384F83D2084F83E3043
:10471000226C84F83C3042F0200222640120BDE883
:10472000F88370B504460D46164623685B691B0680
:1047300001D5002070BD2046FFF718FFA8B96A1CFC
:10474000F3D001F0A7FF801BA84201D8002DECD1C7
:1047500000232022236384F83D2084F83E30226C1D
:1047600084F83C3042F0200222640120E2E700009D
:104770002DE9FF41154602680B9E9846136843F4E5
:10478000807313600F460A9B009600224FF00111C0
:104790000446FFF795FF236838B11B68DB0502D597
:1047A0004FF40073236403200AE007F0FE071F6143
:1047B0000A9A194933462046FFF7F2FE18B1012044
:1047C00004B0BDE8F081236803905A6903929B69A5
:1047D000039332460A99039B2046FFF7A2FF40B19C
:1047E000236C042B01BF2268136843F40073136029
:1047F000E5E7B8F1010F236802D1EDB21D61DFE7F3
:104800002A0A1A610A9932462046FFF78AFF0028D1
:10481000E6D12368F1E700BF020001002DE9FF4166
:10482000164602680B9D9846136843F48063136034
:104830000268136843F4807313600F460A9B009567
:1048400000224FF001110446FFF73AFF236848B1F8
:104850001B68DB0502D54FF400732364032004B00A
:10486000BDE8F081FFB207F0FE021A6129490A9AF9
:104870002B462046FFF794FE08B10120EFE723689E
:1048800003905A6903929B6903932A460A99039BF2
:104890002046FFF746FF40B1236C042B01BF22687E
:1048A000136843F400731360E7E7B8F1010F23685E
:1048B00025D1F6B21E612A460A992046FFF731FF3C
:1048C00002460028E8D121680B6843F480730B602E
:1048D00020460A9B00954FF00111FFF7F1FE236877
:1048E0000028B5D147F001071F610A9A09492B46F4
:1048F0002046FFF755FE003018BF0120AFE7320A0F
:104900001A610A992A462046FFF70BFF0028C3D1F7
:104910002368CEE70200010070B5044608B9012003
:1049200070BD90F83D3003F0FF021BB980F83C20C9
:10493000FEF7C0FE2268242384F83D30136823F07C
:10494000010313602268136843F400431360226874
:10495000136823F400431360FFF792FB424B626835
:104960009A4294BF414B424B98428CBF0023012393
:10497000002BD4D122683F495368B0FBF1F123F0FA
:104980003F030B4353606668374B25689E4288BFE0
:104990004FF496732A6A8ABF4B434B1C4FF47A71CB
:1049A00022F03F0284BFB3FBF1F3013313432B62C8
:1049B00021686368CA692C4D22F44F42AB4222F051
:1049C000FF0200F1FF3035D85B00B0FBF3F0431C71
:1049D000C3F30B03042B38BF04231343CB612168BB
:1049E000D4E907300A68034322F0C00213430B6086
:1049F0002168D4E903038A6822F40342034322F0C6
:104A0000FF0213438B602168D4E90530CA68034371
:104A100022F0FF021343CB602268136843F00103C6
:104A2000136000202023206484F83D30206384F844
:104A30003E0075E7A56855B903EB4303B0FBF3F0FF
:104A4000431CC3F30B036BB143F40043C5E71925C3
:104A50006B43B0FBF3F0431CC3F30B0313B143F4FC
:104A60004043BAE70123B8E7A08601007F841E0017
:104A7000FF083D0040420F002DE9F74304469946E8
:104A80000F4690460C9E01F005FE94F83D30202B19
:104A9000054603D0022003B0BDE8F083009019233F
:104AA00001223D492046FFF70BFE0028F2D194F881
:104AB0003C30012BEED0012384F83C3023681A6887
:104AC000D2075EBF1A6842F001021A6022681368BA
:104AD00023F400631360212384F83D30402384F8DD
:104AE0003E30002323640A9B6362BDF82C3063854B
:104AF000638D2385294BE362CDE900654B46424631
:104B000039462046FFF734FE00282DD00120C2E7A9
:104B1000FFF707FE40B1236C042B01BF2268136826
:104B200043F400731360F1E7626A236812781A6134
:104B3000616A628D4B1C6362238D013A92B2013B24
:104B400062859BB222682385506940070CD55BB112
:104B50004B781361636A01336362238D013B2385C4
:104B6000638D013B9BB26385238D2A4631462046E7
:104B7000002BCDD1FFF74FFD0028CCD12268136860
:104B800043F400731360202384F83D3084F83C0024
:104B900084F83E007FE700BF020010000000FFFF26
:104BA0002DE9F043044687B099460D469046109F84
:104BB00001F070FD94F83D30202B064604D002250C
:104BC000284607B0BDE8F0830090192301227849F8
:104BD0002046FFF775FD0028F1D194F83C30012BF9
:104BE000EDD0012384F83C3023681A68D0075EBFFB
:104BF0001A6842F001021A602268136823F4006305
:104C00001360222384F83D30402384F83E30002393
:104C100023640E9B6362BDF83C306385638D2385FE
:104C2000644BE3622946CDE900764B464246204676
:104C3000FFF7F4FD054608B10125C1E7228D236881
:104C4000B2B902905A6902929A690292029A1A685B
:104C500042F400721A60DFF86081238D002B2FD19F
:104C6000202284F83D2084F83C3084F83E30A7E7C9
:104C7000012A0BD11A6822F480621A60236803901B
:104C80005A6903929A690392039AE0E7022A10D1C3
:104C90001A6822F480621A602268136843F4006381
:104CA0001360236804905A6904929B690493049BDF
:104CB000D1E705905A6905929B690593059BCAE760
:104CC000032B58D8012B15D1324639462046FFF721
:104CD000C8FC0028B0D123681A69636A1A70636A35
:104CE00001336362238D013B2385638D013B9BB2BE
:104CF0006385B2E7022B00963B464FF00002414627
:104D000020461AD1FFF7DCFC002895D122681368F1
:104D100043F40073136023681A69636A1A70626A45
:104D2000531C6362238D013B2385638D013B9BB242
:104D3000638523681B695370D1E7FFF7C1FC024606
:104D400000287FF479AF21680B6823F480630B603F
:104D500023681969636A1970636A00960133636294
:104D6000238D013B2385638D013B9BB263854146C7
:104D70003B462046C6E7324639462046FFF771FCDF
:104D800000287FF459AF23681A69636A1A70626A4F
:104D9000531C6362238D013B2385638D013B9BB2D2
:104DA00063852368596949077FF557AFC2E700BF9C
:104DB000020010000000FFFF040001000368DAB2E7
:104DC00023F47F7323F003031821103AB2FBF1F2AE
:104DD0000449032A88BF0433895C8365C165806DFB
:104DE000704700BFE4DB010838B5044601F052FC0F
:104DF0000546002C75D0002384F834302268022345
:104E000084F83530136823F00103136021680B68C0
:104E1000D8073FD40B6834481840D4E90123134322
:104E2000E26813432269134362691343A26913437F
:104E3000E2691343226A1343626A042A43EA0003C5
:104E400002BFD4E90B20024313430B602068626A5F
:104E50004369042A23F0070343EA02030CD1A26A40
:104E6000E16A134341B1A569FDB9012A2ED001D3EE
:104E7000022A01D1CA012CD443612046FFF79EFFCC
:104E8000E26D3F239340836000200123606584F836
:104E9000353009E001F0FEFB401B0528B6D9202380
:104EA0006365032084F8350038BDB5F5005F14D183
:104EB000032AE1D801A555F822F000BFD34E00081F
:104EC000754E0008D34E0008CD4E0008B1F1C07FEA
:104ED000D2D1402363650120E4E7022AF9D9032AED
:104EE000C7E70120E0E700BF3F8010F070B590F801
:104EF0003440012C39D0012480F8344090F83540FA
:104F0000866D012C4FF000054FF002042BD180F884
:104F10003540456505682C6824F480242C600468BD
:104F200063608368402B03680BBF9A6099600368D5
:104F300003680CBFD960DA60C26D3F239340B36051
:104F40000268136843F016031360036C23B1026810
:104F5000136843F0080313600268136843F0010309
:104F60001360002070BD80F834500220FAE7000082
:104F7000F7B500230193856D614BC26D1F682E68E4
:104F8000082303FA02F2324204460ED00268116886
:104F900049070AD5116821F004011160C26D9340E0
:104FA000AB60436D43F001034365E26D0123934021
:104FB000334208D022685269100641BFAB60636D6E
:104FC00043F002036365E26D04239340334208D04B
:104FD00022681268910741BFAB60636D43F0040320
:104FE0006365E26D10239340334211D0226812684A
:104FF00012070DD5AB6023681A6850033BD51B68B8
:10500000190301D4236C00E0A36C0BB12046984730
:10501000E26D2023934033423ED022681268D606C8
:105020003AD5AB6094F83530052B23681A682AD13D
:1050300022F016021A602268536923F0800353613C
:10504000236C0BB9A36C23B12268136823F0080307
:105050001360E26D3F239340AB60002384F834304B
:10506000012384F83530236D002B46D0204603B051
:10507000BDE8F04018471A68D2055EBF1A6822F0F2
:1050800008021A60BEE7500328D51B68190332D402
:10509000636C0BB120469847636D73B3636DDA0799
:1050A0001AD50523226884F83530136823F00103EC
:1050B00013604FF41653B7FBF3F7019B0133BB4268
:1050C000019303D823681B68DB07F6D4002384F818
:1050D0003430012384F83530E36CC5E71A6812F4E4
:1050E000807208D1196821F010011960012384F839
:1050F000342084F83530E36BCBE703B0F0BD00BF5C
:105100000C00002010B590F83D30DBB2202B19D1F7
:105110000468242280F83D20226822F001022260E7
:105120000468626A22F0100262620468626A1143D3
:10513000616201680A6842F001020A6080F83D304D
:10514000002010BD0220FCE730B590F83D20D2B21F
:10515000202A18D10568242380F83D302C6824F0DB
:1051600001042C600468656A4FF6F0732B400B4312
:105170009BB2636201680B6843F001030B6080F827
:105180003D20002030BD0220FCE7000030B590F843
:105190003C30012B4FF0020336D0046880F83D30DC
:1051A000012280F83C2063680D68A26823F0700338
:1051B0002B4363600368154CA3421AD0B3F1804FB0
:1051C00017D0A4F57C44A34213D004F58064A34215
:1051D0000FD004F58064A3420BD004F57844A342B9
:1051E00007D004F57054A34203D0A4F59434A3422D
:1051F00004D1496822F080020A439A60012380F8B2
:105200003D30002380F83C30184630BD000001409E
:1052100070477047074AD36823F4E0631B041B0CF4
:1052200043F0BF63000243F4003300F4E060034343
:10523000D360704700ED00E070B5174BDC68C4F335
:105240000224C4F10705042D04F1040328BF04253A
:105250004FF0FF36062B06FA05F38CBF033C002403
:1052600021EA0303A34006FA04F422EA0404002816
:1052700043EA0403A8BF00F160404FEA0313BCBF38
:1052800000F00F00054ADBB2AABF00F561401354DD
:1052900080F8003370BD00BF00ED00E014ED00E0C9
:1052A000002808DB4209012300F01F0003FA00F088
:1052B000014B43F82200704700E100E02DE9F04186
:1052C000D1E907434A6AD1E90158D1E903ECD1E9B0
:1052D00005760968012943EA0403124904680FD0DE
:1052E0001A432A4342EA080343EA0E0343EA0C0343
:1052F0003B43214033430B4303600020BDE8F08172
:1053000013434268114045EA080242EA0E0242EAAB
:105310000C023A4324F4F844324323430A43036023
:105320004260EAE70080FFFFF0B5CB680C688E684A
:105330000D695F1E4B6904F1FF3C4C688969013BB4
:105340001B05013C013E013D0139012A4FEA0414CD
:105350004FEA06264FEA05454FEA016143EA073363
:105360000CD043EA0C032343826833432B4302F0FF
:1053700070420B43134383600020F0BD876827F41D
:10538000700727F4704744EA06023B4342EA0C02E6
:10539000C76883602A4307F070470A433A43C260F4
:1053A000EAE773B5002301931546D1E900321343B0
:1053B000CA6843EA42238A68013A43EA42130193E6
:1053C000019B0361044601F065F90646A06910F0EF
:1053D000200003D06B1CF9D015B9032002B070BDBA
:1053E00001F058F9801BA842F0D9F6E7436943EA77
:1053F000410141610020704710B5044640B390F868
:10540000393003F0FF021BB980F83820FEF730F97D
:1054100022686168022384F83930136823F440332A
:105420000B4313602268A168536B23F007030B43FF
:1054300053632268E168136C23F47F5323F03F0326
:105440000B43136400200123E06384F8393010BD5E
:105450000120FCE77047704770B503685E681D68FF
:10546000F207044615D5E90513D51A6822F48072AF
:105470001A60C36B43F00103C363036801229A609F
:10548000042380F83930002380F83830436903B1B1
:105490009847B20617D5AB0415D52268136823F4D4
:1054A00000531360236820229A60E36B43F00203E9
:1054B000E363042384F83930002384F838306369C7
:1054C0000BB120469847300717D5290515D5226816
:1054D000136823F400631360236808229A60E36B67
:1054E00043F00403E363042384F83930002384F891
:1054F000383063690BB12046984772070CD56B05AD
:105500000AD52268136823F4806313602368042299
:105510009A602046FFF79EFFB00715D5A90513D561
:105520002268136823F400731360236802229A60D0
:10553000E36BE363012384F83930002384F83830C7
:1055400023690BB120469847F20614D5EB0412D517
:105550002268136823F480531360236810229A6032
:10556000E36BE363012384F83930002384F8383097
:105570002046FFF770FF70BD70B590F83830012BF2
:105580004FF002032CD0012280F838200A0180F865
:1055900039308418D4E9075345EA0343093D012D06
:1055A000656A194E9ABF05F07F452B4343EA0563B0
:1055B0000568B9B9696A31400B436B620368826957
:1055C0009A61C369093B012B04D8436A026823F03E
:1055D0007F439362012380F83930002380F838300C
:1055E000184670BDE96931400B43EB6183180168CF
:1055F0009A690A61DB69093B012B9FBF636A0268F4
:1056000023F07F431362E5E7F0FFFC002DE9F74F3D
:10561000DFF8B8C16B4CDFF8B891DFF8B881002330
:1056200001250A689D402A40954240F0B2804E68AC
:1056300026F010065F004FF0030E013E0EFA07FE43
:10564000012E6FEA0E0E0FD88568CE6805EA0E05AA
:10565000BE402E4386604E684568C6F3001625EAB4
:1056600002059E402E434660C5688E6805EA0E0519
:10567000BE402E43C6604D6825F01005022D14D1A2
:105680004FEAD30A00EB8A0A03F0070BDAF820602E
:105690004FEA8B0B0F2505FA0BF526EA05050E6977
:1056A00006FA0BF62E43CAF82060056805EA0E0ECE
:1056B0004D6805F00305BD4045EA0E0505604D68DF
:1056C000EE0066D54FF0000BCDF804B0DCF8446076
:1056D0003D4D46F48046CCF84460DCF8446006F466
:1056E00080460196019E23F0030606F1804606F5EA
:1056F0009C3603F0030ED6F808A04FEA8E0E0F2753
:1057000007FA0EF7A8422AEA070749D005F580658F
:10571000A84247D005F58065A84245D005F58065CB
:10572000A84243D0484543D0404543D005F54065A5
:10573000A84241D005F58065A8423FD005F58065B7
:10574000A8423DD005F58065A84214BF0A25092569
:1057500005FA0EF53D43B5604D682768D643ED0365
:1057600054BF3740174327604D686768AD0354BF87
:105770003740174367604D68A768ED0254BF374054
:105780001743A7604D68E768AD0254BF3740174321
:10579000E7600133102B7FF443AF03B0BDE8F08F17
:1057A0005D46D5E70125D3E70225D1E70325CFE7FD
:1057B0000425CDE70525CBE70625C9E70725C7E77B
:1057C0000825C5E7003C01400000024000380240C7
:1057D00000100240001402400AB1816170470904C0
:1057E000FBE7F8B504460E4615461F4621688A6851
:1057F00036EA020301D0002030E06B1CF7D000F045
:1058000049FFC01B8542F1D82268536823F0E003AA
:1058100053606368B3F5827F0BD1A368B3F5004F83
:1058200002D0B3F5806F04D12268136823F04003DF
:105830001360A36AB3F5005F09D12268136823F4EB
:10584000005313602268136843F40053136001236C
:1058500084F85130002384F850300320F8BD10B58F
:1058600013464268B2F5827F04460BD18268B2F5D6
:10587000004F02D0B2F5806F04D12068026822F098
:10588000400202606268B2F5827F0BD1A268B2F575
:10589000806F0A4607D080212046FFF7A2FF20B97B
:1058A000002010BD0A460121F6E7636D43F0200396
:1058B00063650320F5E7000073B51346124A134EE3
:1058C00015684268B5FBF6F64FF47A757543B2F584
:1058D000827F044601950BD10A468021FFF781FFA4
:1058E00078B1636D43F020036365032002B070BD9F
:1058F000019B33B1019B013B019323689B681B060D
:10590000F6D40020F2E700BF0C00002000366E0144
:1059100010B50446002839D00023836290F8513036
:1059200003F0FF021BB980F85020FDF7E5FF226865
:10593000022384F85130136823F040031360D4E944
:105940000023A1680B43E1680B4321690B436169A4
:105950000B43E1690B43216A0B43A16A0B43A16925
:1059600001F400710B431360638B616A226803F0DA
:1059700004030B4353602268D36923F40063D361AB
:1059800000200123606584F8513010BD0120FCE740
:105990002DE9F3411D4690F85030012B044688460E
:1059A000174600F09480012380F8503000F072FE1A
:1059B000064694F85100C0B2012840F08680B8F144
:1059C000000F58D0002F56D0032384F85130A3681D
:1059D000C4F830800020B3F5004FC4E9100008BFC0
:1059E00022686065A786E786A063A087E08702BF7C
:1059F000136843F48043136023681A6852065EBF3D
:105A00001A6842F040021A60E2686368B2F5006FFB
:105A10003AD10BB1012F0AD12368226B1288DA60C8
:105A2000236B02332363E38E013B9BB2E386E38E59
:105A30009BB2A3B9324629462046FFF73DFF002816
:105A400040D1A36833B901932368DA6801929B6857
:105A50000193019B606D003018BF01200BE02368AB
:105A60009A689007D9D400F015FE801BA842DED3B7
:105A7000691CDCD00320012384F85130002384F812
:105A8000503002B0BDE8F0810BB1012F0AD123687C
:105A9000226B12781A73236B01332363E38E013B6D
:105AA0009BB2E386E38E9BB2002BC3D023689A6837
:105AB0009207EDD400F0EEFD801BA842F2D36B1CE0
:105AC000F0D0D7E720236365BBE70220D3E70220AD
:105AD000D7E72DE9F7431D4690F850300A9E012B79
